{
  "_format": "hh-sol-artifact-1",
  "contractName": "GaslessNFT",
  "sourceName": "contracts/GaslessNFT.sol",
  "abi": [
    {
      "inputs": [
        {
          "internalType": "string",
          "name": "name",
          "type": "string"
        },
        {
          "internalType": "string",
          "name": "symbol",
          "type": "string"
        },
        {
          "internalType": "address",
          "name": "relayer",
          "type": "address"
        }
      ],
      "stateMutability": "nonpayable",
      "type": "constructor"
    },
    {
      "anonymous": false,
      "inputs": [
        {
          "indexed": true,
          "internalType": "address",
          "name": "owner",
          "type": "address"
        },
        {
          "indexed": true,
          "internalType": "address",
          "name": "approved",
          "type": "address"
        },
        {
          "indexed": true,
          "internalType": "uint256",
          "name": "tokenId",
          "type": "uint256"
        }
      ],
      "name": "Approval",
      "type": "event"
    },
    {
      "anonymous": false,
      "inputs": [
        {
          "indexed": true,
          "internalType": "address",
          "name": "owner",
          "type": "address"
        },
        {
          "indexed": true,
          "internalType": "address",
          "name": "operator",
          "type": "address"
        },
        {
          "indexed": false,
          "internalType": "bool",
          "name": "approved",
          "type": "bool"
        }
      ],
      "name": "ApprovalForAll",
      "type": "event"
    },
    {
      "anonymous": false,
      "inputs": [
        {
          "indexed": false,
          "internalType": "address",
          "name": "userAddress",
          "type": "address"
        },
        {
          "indexed": false,
          "internalType": "address",
          "name": "relayerAddress",
          "type": "address"
        },
        {
          "indexed": false,
          "internalType": "bytes",
          "name": "functionSignature",
          "type": "bytes"
        }
      ],
      "name": "MetaTransactionExecuted",
      "type": "event"
    },
    {
      "anonymous": false,
      "inputs": [
        {
          "indexed": true,
          "internalType": "address",
          "name": "from",
          "type": "address"
        },
        {
          "indexed": true,
          "internalType": "address",
          "name": "to",
          "type": "address"
        },
        {
          "indexed": true,
          "internalType": "uint256",
          "name": "tokenId",
          "type": "uint256"
        }
      ],
      "name": "Transfer",
      "type": "event"
    },
    {
      "inputs": [
        {
          "internalType": "address",
          "name": "to",
          "type": "address"
        },
        {
          "internalType": "uint256",
          "name": "tokenId",
          "type": "uint256"
        }
      ],
      "name": "approve",
      "outputs": [],
      "stateMutability": "nonpayable",
      "type": "function"
    },
    {
      "inputs": [
        {
          "internalType": "address",
          "name": "owner",
          "type": "address"
        }
      ],
      "name": "balanceOf",
      "outputs": [
        {
          "internalType": "uint256",
          "name": "",
          "type": "uint256"
        }
      ],
      "stateMutability": "view",
      "type": "function"
    },
    {
      "inputs": [
        {
          "internalType": "address",
          "name": "userAddress",
          "type": "address"
        },
        {
          "internalType": "bytes",
          "name": "functionSignature",
          "type": "bytes"
        },
        {
          "internalType": "bytes32",
          "name": "sigR",
          "type": "bytes32"
        },
        {
          "internalType": "bytes32",
          "name": "sigS",
          "type": "bytes32"
        },
        {
          "internalType": "uint8",
          "name": "sigV",
          "type": "uint8"
        }
      ],
      "name": "executeMetaTransaction",
      "outputs": [
        {
          "internalType": "bytes",
          "name": "",
          "type": "bytes"
        }
      ],
      "stateMutability": "payable",
      "type": "function"
    },
    {
      "inputs": [
        {
          "internalType": "uint256",
          "name": "tokenId",
          "type": "uint256"
        }
      ],
      "name": "getApproved",
      "outputs": [
        {
          "internalType": "address",
          "name": "",
          "type": "address"
        }
      ],
      "stateMutability": "view",
      "type": "function"
    },
    {
      "inputs": [],
      "name": "getChainID",
      "outputs": [
        {
          "internalType": "uint256",
          "name": "",
          "type": "uint256"
        }
      ],
      "stateMutability": "view",
      "type": "function"
    },
    {
      "inputs": [
        {
          "internalType": "address",
          "name": "user",
          "type": "address"
        }
      ],
      "name": "getNonce",
      "outputs": [
        {
          "internalType": "uint256",
          "name": "nonce",
          "type": "uint256"
        }
      ],
      "stateMutability": "view",
      "type": "function"
    },
    {
      "inputs": [
        {
          "internalType": "address",
          "name": "owner",
          "type": "address"
        },
        {
          "internalType": "address",
          "name": "operator",
          "type": "address"
        }
      ],
      "name": "isApprovedForAll",
      "outputs": [
        {
          "internalType": "bool",
          "name": "",
          "type": "bool"
        }
      ],
      "stateMutability": "view",
      "type": "function"
    },
    {
      "inputs": [
        {
          "internalType": "string",
          "name": "_tokenURI",
          "type": "string"
        }
      ],
      "name": "mint",
      "outputs": [],
      "stateMutability": "nonpayable",
      "type": "function"
    },
    {
      "inputs": [],
      "name": "name",
      "outputs": [
        {
          "internalType": "string",
          "name": "",
          "type": "string"
        }
      ],
      "stateMutability": "view",
      "type": "function"
    },
    {
      "inputs": [
        {
          "internalType": "uint256",
          "name": "tokenId",
          "type": "uint256"
        }
      ],
      "name": "ownerOf",
      "outputs": [
        {
          "internalType": "address",
          "name": "",
          "type": "address"
        }
      ],
      "stateMutability": "view",
      "type": "function"
    },
    {
      "inputs": [],
      "name": "relayer",
      "outputs": [
        {
          "internalType": "address",
          "name": "",
          "type": "address"
        }
      ],
      "stateMutability": "view",
      "type": "function"
    },
    {
      "inputs": [
        {
          "internalType": "address",
          "name": "from",
          "type": "address"
        },
        {
          "internalType": "address",
          "name": "to",
          "type": "address"
        },
        {
          "internalType": "uint256",
          "name": "tokenId",
          "type": "uint256"
        }
      ],
      "name": "safeTransferFrom",
      "outputs": [],
      "stateMutability": "nonpayable",
      "type": "function"
    },
    {
      "inputs": [
        {
          "internalType": "address",
          "name": "from",
          "type": "address"
        },
        {
          "internalType": "address",
          "name": "to",
          "type": "address"
        },
        {
          "internalType": "uint256",
          "name": "tokenId",
          "type": "uint256"
        },
        {
          "internalType": "bytes",
          "name": "_data",
          "type": "bytes"
        }
      ],
      "name": "safeTransferFrom",
      "outputs": [],
      "stateMutability": "nonpayable",
      "type": "function"
    },
    {
      "inputs": [
        {
          "internalType": "address",
          "name": "operator",
          "type": "address"
        },
        {
          "internalType": "bool",
          "name": "approved",
          "type": "bool"
        }
      ],
      "name": "setApprovalForAll",
      "outputs": [],
      "stateMutability": "nonpayable",
      "type": "function"
    },
    {
      "inputs": [
        {
          "internalType": "bytes4",
          "name": "interfaceId",
          "type": "bytes4"
        }
      ],
      "name": "supportsInterface",
      "outputs": [
        {
          "internalType": "bool",
          "name": "",
          "type": "bool"
        }
      ],
      "stateMutability": "view",
      "type": "function"
    },
    {
      "inputs": [],
      "name": "symbol",
      "outputs": [
        {
          "internalType": "string",
          "name": "",
          "type": "string"
        }
      ],
      "stateMutability": "view",
      "type": "function"
    },
    {
      "inputs": [],
      "name": "tokenCounter",
      "outputs": [
        {
          "internalType": "uint256",
          "name": "",
          "type": "uint256"
        }
      ],
      "stateMutability": "view",
      "type": "function"
    },
    {
      "inputs": [
        {
          "internalType": "uint256",
          "name": "_tokenId",
          "type": "uint256"
        }
      ],
      "name": "tokenURI",
      "outputs": [
        {
          "internalType": "string",
          "name": "",
          "type": "string"
        }
      ],
      "stateMutability": "view",
      "type": "function"
    },
    {
      "inputs": [
        {
          "internalType": "address",
          "name": "from",
          "type": "address"
        },
        {
          "internalType": "address",
          "name": "to",
          "type": "address"
        },
        {
          "internalType": "uint256",
          "name": "tokenId",
          "type": "uint256"
        }
      ],
      "name": "transferFrom",
      "outputs": [],
      "stateMutability": "nonpayable",
      "type": "function"
    },
    {
      "inputs": [
        {
          "internalType": "address",
          "name": "owner",
          "type": "address"
        },
        {
          "internalType": "uint256",
          "name": "nonce",
          "type": "uint256"
        },
        {
          "internalType": "uint256",
          "name": "chainID",
          "type": "uint256"
        },
        {
          "internalType": "bytes",
          "name": "functionSignature",
          "type": "bytes"
        },
        {
          "internalType": "bytes32",
          "name": "sigR",
          "type": "bytes32"
        },
        {
          "internalType": "bytes32",
          "name": "sigS",
          "type": "bytes32"
        },
        {
          "internalType": "uint8",
          "name": "sigV",
          "type": "uint8"
        }
      ],
      "name": "verify",
      "outputs": [
        {
          "internalType": "bool",
          "name": "",
          "type": "bool"
        }
      ],
      "stateMutability": "view",
      "type": "function"
    }
  ],
  "bytecode": "0x60806040523480156200001157600080fd5b5060405162003946380380620039468339818101604052810190620000379190620001f9565b828282336000806101000a81548173ffffffffffffffffffffffffffffffffffffffff021916908373ffffffffffffffffffffffffffffffffffffffff16021790555050816002908051906020019062000093929190620000c0565b508060039080519060200190620000ac929190620000c0565b50505060006008819055505050506200043f565b828054620000ce906200034a565b90600052602060002090601f016020900481019282620000f257600085556200013e565b82601f106200010d57805160ff19168380011785556200013e565b828001600101855582156200013e579182015b828111156200013d57825182559160200191906001019062000120565b5b5090506200014d919062000151565b5090565b5b808211156200016c57600081600090555060010162000152565b5090565b6000620001876200018184620002aa565b62000281565b905082815260208101848484011115620001a057600080fd5b620001ad84828562000314565b509392505050565b600081519050620001c68162000425565b92915050565b600082601f830112620001de57600080fd5b8151620001f084826020860162000170565b91505092915050565b6000806000606084860312156200020f57600080fd5b600084015167ffffffffffffffff8111156200022a57600080fd5b6200023886828701620001cc565b935050602084015167ffffffffffffffff8111156200025657600080fd5b6200026486828701620001cc565b92505060406200027786828701620001b5565b9150509250925092565b60006200028d620002a0565b90506200029b828262000380565b919050565b6000604051905090565b600067ffffffffffffffff821115620002c857620002c7620003e5565b5b620002d38262000414565b9050602081019050919050565b6000620002ed82620002f4565b9050919050565b600073ffffffffffffffffffffffffffffffffffffffff82169050919050565b60005b838110156200033457808201518184015260208101905062000317565b8381111562000344576000848401525b50505050565b600060028204905060018216806200036357607f821691505b602082108114156200037a5762000379620003b6565b5b50919050565b6200038b8262000414565b810181811067ffffffffffffffff82111715620003ad57620003ac620003e5565b5b80604052505050565b7f4e487b7100000000000000000000000000000000000000000000000000000000600052602260045260246000fd5b7f4e487b7100000000000000000000000000000000000000000000000000000000600052604160045260246000fd5b6000601f19601f8301169050919050565b6200043081620002e0565b81146200043c57600080fd5b50565b6134f7806200044f6000396000f3fe60806040526004361061011f5760003560e01c80636352211e116100a0578063b88d4fde11610064578063b88d4fde14610412578063c87b56dd1461043b578063d082e38114610478578063d85d3d27146104a3578063e985e9c5146104cc5761011f565b80636352211e1461031957806370a08231146103565780638406c0791461039357806395d89b41146103be578063a22cb465146103e95761011f565b806323b872dd116100e757806323b872dd146102225780632d0335ab1461024b57806342842e0e14610288578063564b81ef146102b15780636281133d146102dc5761011f565b806301ffc9a71461012457806306fdde0314610161578063081812fc1461018c578063095ea7b3146101c95780630c53c51c146101f2575b600080fd5b34801561013057600080fd5b5061014b6004803603810190610146919061224e565b610509565b6040516101589190612850565b60405180910390f35b34801561016d57600080fd5b506101766105eb565b60405161018391906128d2565b60405180910390f35b34801561019857600080fd5b506101b360048036038101906101ae91906122e1565b61067d565b6040516101c091906127ab565b60405180910390f35b3480156101d557600080fd5b506101f060048036038101906101eb919061215c565b610702565b005b61020c600480360381019061020791906120cd565b61081a565b60405161021991906128b0565b60405180910390f35b34801561022e57600080fd5b5061024960048036038101906102449190611fc7565b610a7e565b005b34801561025757600080fd5b50610272600480360381019061026d9190611f62565b610ade565b60405161027f9190612b34565b60405180910390f35b34801561029457600080fd5b506102af60048036038101906102aa9190611fc7565b610b27565b005b3480156102bd57600080fd5b506102c6610b47565b6040516102d39190612b34565b60405180910390f35b3480156102e857600080fd5b5061030360048036038101906102fe9190612198565b610b54565b6040516103109190612850565b60405180910390f35b34801561032557600080fd5b50610340600480360381019061033b91906122e1565b610c8f565b60405161034d91906127ab565b60405180910390f35b34801561036257600080fd5b5061037d60048036038101906103789190611f62565b610d41565b60405161038a9190612b34565b60405180910390f35b34801561039f57600080fd5b506103a8610df9565b6040516103b591906127ab565b60405180910390f35b3480156103ca57600080fd5b506103d3610e1d565b6040516103e091906128d2565b60405180910390f35b3480156103f557600080fd5b50610410600480360381019061040b9190612091565b610eaf565b005b34801561041e57600080fd5b5061043960048036038101906104349190612016565b610ec5565b005b34801561044757600080fd5b50610462600480360381019061045d91906122e1565b610f27565b60405161046f91906128d2565b60405180910390f35b34801561048457600080fd5b5061048d611014565b60405161049a9190612b34565b60405180910390f35b3480156104af57600080fd5b506104ca60048036038101906104c591906122a0565b61101a565b005b3480156104d857600080fd5b506104f360048036038101906104ee9190611f8b565b611054565b6040516105009190612850565b60405180910390f35b60007f80ac58cd000000000000000000000000000000000000000000000000000000007bffffffffffffffffffffffffffffffffffffffffffffffffffffffff1916827bffffffffffffffffffffffffffffffffffffffffffffffffffffffff191614806105d457507f5b5e139f000000000000000000000000000000000000000000000000000000007bffffffffffffffffffffffffffffffffffffffffffffffffffffffff1916827bffffffffffffffffffffffffffffffffffffffffffffffffffffffff1916145b806105e457506105e3826110e8565b5b9050919050565b6060600280546105fa90612dd5565b80601f016020809104026020016040519081016040528092919081815260200182805461062690612dd5565b80156106735780601f1061064857610100808354040283529160200191610673565b820191906000526020600020905b81548152906001019060200180831161065657829003601f168201915b5050505050905090565b600061068882611152565b6106c7576040517f08c379a00000000000000000000000000000000000000000000000000000000081526004016106be90612a94565b60405180910390fd5b6006600083815260200190815260200160002060009054906101000a900473ffffffffffffffffffffffffffffffffffffffff169050919050565b600061070d82610c8f565b90508073ffffffffffffffffffffffffffffffffffffffff168373ffffffffffffffffffffffffffffffffffffffff16141561077e576040517f08c379a000000000000000000000000000000000000000000000000000000000815260040161077590612af4565b60405180910390fd5b8073ffffffffffffffffffffffffffffffffffffffff1661079d6111be565b73ffffffffffffffffffffffffffffffffffffffff1614806107cc57506107cb816107c66111be565b611054565b5b61080b576040517f08c379a000000000000000000000000000000000000000000000000000000000815260040161080290612a14565b60405180910390fd5b61081583836111c6565b505050565b606061087186600160008973ffffffffffffffffffffffffffffffffffffffff1673ffffffffffffffffffffffffffffffffffffffff16815260200190815260200160002054610868610b47565b88888888610b54565b6108b0576040517f08c379a00000000000000000000000000000000000000000000000000000000081526004016108a790612ad4565b60405180910390fd5b61090260018060008973ffffffffffffffffffffffffffffffffffffffff1673ffffffffffffffffffffffffffffffffffffffff1681526020019081526020016000205461127f90919063ffffffff16565b600160008873ffffffffffffffffffffffffffffffffffffffff1673ffffffffffffffffffffffffffffffffffffffff168152602001908152602001600020819055506000803073ffffffffffffffffffffffffffffffffffffffff168789604051602001610972929190612713565b60405160208183030381529060405260405161098e91906126fc565b6000604051808303816000865af19150503d80600081146109cb576040519150601f19603f3d011682016040523d82523d6000602084013e6109d0565b606091505b509150915081610a15576040517f08c379a0000000000000000000000000000000000000000000000000000000008152600401610a0c90612914565b60405180910390fd5b7f5845892132946850460bff5a0083f71031bc5bf9aadcd40f1de79423eac9b10b8860008054906101000a900473ffffffffffffffffffffffffffffffffffffffff1689604051610a68939291906127c6565b60405180910390a1809250505095945050505050565b610a8f610a896111be565b826112dd565b610ace576040517f08c379a0000000000000000000000000000000000000000000000000000000008152600401610ac590612b14565b60405180910390fd5b610ad98383836113bb565b505050565b6000600160008373ffffffffffffffffffffffffffffffffffffffff1673ffffffffffffffffffffffffffffffffffffffff168152602001908152602001600020549050919050565b610b4283838360405180602001604052806000815250610ec5565b505050565b6000804690508091505090565b600080610b8c88308989604051602001610b719493929190612761565b60405160208183030381529060405280519060200120611622565b9050600060018285888860405160008152602001604052604051610bb3949392919061286b565b6020604051602081039080840390855afa158015610bd5573d6000803e3d6000fd5b505050602060405103519050600073ffffffffffffffffffffffffffffffffffffffff168173ffffffffffffffffffffffffffffffffffffffff161415610c51576040517f08c379a0000000000000000000000000000000000000000000000000000000008152600401610c48906129d4565b60405180910390fd5b8073ffffffffffffffffffffffffffffffffffffffff168a73ffffffffffffffffffffffffffffffffffffffff161492505050979650505050505050565b6000806004600084815260200190815260200160002060009054906101000a900473ffffffffffffffffffffffffffffffffffffffff169050600073ffffffffffffffffffffffffffffffffffffffff168173ffffffffffffffffffffffffffffffffffffffff161415610d38576040517f08c379a0000000000000000000000000000000000000000000000000000000008152600401610d2f90612a54565b60405180910390fd5b80915050919050565b60008073ffffffffffffffffffffffffffffffffffffffff168273ffffffffffffffffffffffffffffffffffffffff161415610db2576040517f08c379a0000000000000000000000000000000000000000000000000000000008152600401610da990612a34565b60405180910390fd5b600560008373ffffffffffffffffffffffffffffffffffffffff1673ffffffffffffffffffffffffffffffffffffffff168152602001908152602001600020549050919050565b60008054906101000a900473ffffffffffffffffffffffffffffffffffffffff1681565b606060038054610e2c90612dd5565b80601f0160208091040260200160405190810160405280929190818152602001828054610e5890612dd5565b8015610ea55780601f10610e7a57610100808354040283529160200191610ea5565b820191906000526020600020905b815481529060010190602001808311610e8857829003601f168201915b5050505050905090565b610ec1610eba6111be565b8383611652565b5050565b610ed6610ed06111be565b836112dd565b610f15576040517f08c379a0000000000000000000000000000000000000000000000000000000008152600401610f0c90612b14565b60405180910390fd5b610f21848484846117bf565b50505050565b6060610f3282611152565b610f71576040517f08c379a0000000000000000000000000000000000000000000000000000000008152600401610f6890612ab4565b60405180910390fd5b600960008381526020019081526020016000208054610f8f90612dd5565b80601f0160208091040260200160405190810160405280929190818152602001828054610fbb90612dd5565b80156110085780601f10610fdd57610100808354040283529160200191611008565b820191906000526020600020905b815481529060010190602001808311610feb57829003601f168201915b50505050509050919050565b60085481565b61102d61102561181b565b6008546118d1565b611039600854826118ef565b6008600081548092919061104c90612e38565b919050555050565b6000600760008473ffffffffffffffffffffffffffffffffffffffff1673ffffffffffffffffffffffffffffffffffffffff16815260200190815260200160002060008373ffffffffffffffffffffffffffffffffffffffff1673ffffffffffffffffffffffffffffffffffffffff16815260200190815260200160002060009054906101000a900460ff16905092915050565b60007f01ffc9a7000000000000000000000000000000000000000000000000000000007bffffffffffffffffffffffffffffffffffffffffffffffffffffffff1916827bffffffffffffffffffffffffffffffffffffffffffffffffffffffff1916149050919050565b60008073ffffffffffffffffffffffffffffffffffffffff166004600084815260200190815260200160002060009054906101000a900473ffffffffffffffffffffffffffffffffffffffff1673ffffffffffffffffffffffffffffffffffffffff1614159050919050565b600033905090565b816006600083815260200190815260200160002060006101000a81548173ffffffffffffffffffffffffffffffffffffffff021916908373ffffffffffffffffffffffffffffffffffffffff160217905550808273ffffffffffffffffffffffffffffffffffffffff1661123983610c8f565b73ffffffffffffffffffffffffffffffffffffffff167f8c5be1e5ebec7d5bd14f71427d1e84f3dd0314c0f7b2291e5b200ac8c7c3b92560405160405180910390a45050565b600080828461128e9190612c24565b9050838110156112d3576040517f08c379a00000000000000000000000000000000000000000000000000000000081526004016112ca90612974565b60405180910390fd5b8091505092915050565b60006112e882611152565b611327576040517f08c379a000000000000000000000000000000000000000000000000000000000815260040161131e906129f4565b60405180910390fd5b600061133283610c8f565b90508073ffffffffffffffffffffffffffffffffffffffff168473ffffffffffffffffffffffffffffffffffffffff1614806113a157508373ffffffffffffffffffffffffffffffffffffffff166113898461067d565b73ffffffffffffffffffffffffffffffffffffffff16145b806113b257506113b18185611054565b5b91505092915050565b8273ffffffffffffffffffffffffffffffffffffffff166113db82610c8f565b73ffffffffffffffffffffffffffffffffffffffff1614611431576040517f08c379a000000000000000000000000000000000000000000000000000000000815260040161142890612934565b60405180910390fd5b600073ffffffffffffffffffffffffffffffffffffffff168273ffffffffffffffffffffffffffffffffffffffff1614156114a1576040517f08c379a000000000000000000000000000000000000000000000000000000000815260040161149890612994565b60405180910390fd5b6114ac838383611963565b6114b76000826111c6565b6001600560008573ffffffffffffffffffffffffffffffffffffffff1673ffffffffffffffffffffffffffffffffffffffff16815260200190815260200160002060008282546115079190612c7a565b925050819055506001600560008473ffffffffffffffffffffffffffffffffffffffff1673ffffffffffffffffffffffffffffffffffffffff168152602001908152602001600020600082825461155e9190612c24565b92505081905550816004600083815260200190815260200160002060006101000a81548173ffffffffffffffffffffffffffffffffffffffff021916908373ffffffffffffffffffffffffffffffffffffffff160217905550808273ffffffffffffffffffffffffffffffffffffffff168473ffffffffffffffffffffffffffffffffffffffff167fddf252ad1be2c89b69c2b068fc378daa952ba7f163c4a11628f55a4df523b3ef60405160405180910390a461161d838383611968565b505050565b600081604051602001611635919061273b565b604051602081830303815290604052805190602001209050919050565b8173ffffffffffffffffffffffffffffffffffffffff168373ffffffffffffffffffffffffffffffffffffffff1614156116c1576040517f08c379a00000000000000000000000000000000000000000000000000000000081526004016116b8906129b4565b60405180910390fd5b80600760008573ffffffffffffffffffffffffffffffffffffffff1673ffffffffffffffffffffffffffffffffffffffff16815260200190815260200160002060008473ffffffffffffffffffffffffffffffffffffffff1673ffffffffffffffffffffffffffffffffffffffff16815260200190815260200160002060006101000a81548160ff0219169083151502179055508173ffffffffffffffffffffffffffffffffffffffff168373ffffffffffffffffffffffffffffffffffffffff167f17307eab39ab6107e8899845ad3d59bd9653f200f220920489ca2b5937696c31836040516117b29190612850565b60405180910390a3505050565b6117ca8484846113bb565b6117d68484848461196d565b611815576040517f08c379a000000000000000000000000000000000000000000000000000000000815260040161180c906128f4565b60405180910390fd5b50505050565b60003073ffffffffffffffffffffffffffffffffffffffff163373ffffffffffffffffffffffffffffffffffffffff1614156118c557600080368080601f016020809104026020016040519081016040528093929190818152602001838380828437600081840152601f19601f820116905080830192505050505050509050600080369050905073ffffffffffffffffffffffffffffffffffffffff8183015116925050506118cd565b3390506118ce565b5b90565b6118eb828260405180602001604052806000815250611b04565b5050565b6118f882611152565b611937576040517f08c379a000000000000000000000000000000000000000000000000000000000815260040161192e90612ab4565b60405180910390fd5b8060096000848152602001908152602001600020908051906020019061195e929190611d5c565b505050565b505050565b505050565b600061198e8473ffffffffffffffffffffffffffffffffffffffff16611b5f565b15611af7578373ffffffffffffffffffffffffffffffffffffffff1663150b7a026119b76111be565b8786866040518563ffffffff1660e01b81526004016119d99493929190612804565b602060405180830381600087803b1580156119f357600080fd5b505af1925050508015611a2457506040513d601f19601f82011682018060405250810190611a219190612277565b60015b611aa7573d8060008114611a54576040519150601f19603f3d011682016040523d82523d6000602084013e611a59565b606091505b50600081511415611a9f576040517f08c379a0000000000000000000000000000000000000000000000000000000008152600401611a96906128f4565b60405180910390fd5b805181602001fd5b63150b7a0260e01b7bffffffffffffffffffffffffffffffffffffffffffffffffffffffff1916817bffffffffffffffffffffffffffffffffffffffffffffffffffffffff191614915050611afc565b600190505b949350505050565b611b0e8383611b82565b611b1b600084848461196d565b611b5a576040517f08c379a0000000000000000000000000000000000000000000000000000000008152600401611b51906128f4565b60405180910390fd5b505050565b6000808273ffffffffffffffffffffffffffffffffffffffff163b119050919050565b600073ffffffffffffffffffffffffffffffffffffffff168273ffffffffffffffffffffffffffffffffffffffff161415611bf2576040517f08c379a0000000000000000000000000000000000000000000000000000000008152600401611be990612a74565b60405180910390fd5b611bfb81611152565b15611c3b576040517f08c379a0000000000000000000000000000000000000000000000000000000008152600401611c3290612954565b60405180910390fd5b611c4760008383611963565b6001600560008473ffffffffffffffffffffffffffffffffffffffff1673ffffffffffffffffffffffffffffffffffffffff1681526020019081526020016000206000828254611c979190612c24565b92505081905550816004600083815260200190815260200160002060006101000a81548173ffffffffffffffffffffffffffffffffffffffff021916908373ffffffffffffffffffffffffffffffffffffffff160217905550808273ffffffffffffffffffffffffffffffffffffffff16600073ffffffffffffffffffffffffffffffffffffffff167fddf252ad1be2c89b69c2b068fc378daa952ba7f163c4a11628f55a4df523b3ef60405160405180910390a4611d5860008383611968565b5050565b828054611d6890612dd5565b90600052602060002090601f016020900481019282611d8a5760008555611dd1565b82601f10611da357805160ff1916838001178555611dd1565b82800160010185558215611dd1579182015b82811115611dd0578251825591602001919060010190611db5565b5b509050611dde9190611de2565b5090565b5b80821115611dfb576000816000905550600101611de3565b5090565b6000611e12611e0d84612b74565b612b4f565b905082815260208101848484011115611e2a57600080fd5b611e35848285612d93565b509392505050565b6000611e50611e4b84612ba5565b612b4f565b905082815260208101848484011115611e6857600080fd5b611e73848285612d93565b509392505050565b600081359050611e8a81613437565b92915050565b600081359050611e9f8161344e565b92915050565b600081359050611eb481613465565b92915050565b600081359050611ec98161347c565b92915050565b600081519050611ede8161347c565b92915050565b600082601f830112611ef557600080fd5b8135611f05848260208601611dff565b91505092915050565b600082601f830112611f1f57600080fd5b8135611f2f848260208601611e3d565b91505092915050565b600081359050611f4781613493565b92915050565b600081359050611f5c816134aa565b92915050565b600060208284031215611f7457600080fd5b6000611f8284828501611e7b565b91505092915050565b60008060408385031215611f9e57600080fd5b6000611fac85828601611e7b565b9250506020611fbd85828601611e7b565b9150509250929050565b600080600060608486031215611fdc57600080fd5b6000611fea86828701611e7b565b9350506020611ffb86828701611e7b565b925050604061200c86828701611f38565b9150509250925092565b6000806000806080858703121561202c57600080fd5b600061203a87828801611e7b565b945050602061204b87828801611e7b565b935050604061205c87828801611f38565b925050606085013567ffffffffffffffff81111561207957600080fd5b61208587828801611ee4565b91505092959194509250565b600080604083850312156120a457600080fd5b60006120b285828601611e7b565b92505060206120c385828601611e90565b9150509250929050565b600080600080600060a086880312156120e557600080fd5b60006120f388828901611e7b565b955050602086013567ffffffffffffffff81111561211057600080fd5b61211c88828901611ee4565b945050604061212d88828901611ea5565b935050606061213e88828901611ea5565b925050608061214f88828901611f4d565b9150509295509295909350565b6000806040838503121561216f57600080fd5b600061217d85828601611e7b565b925050602061218e85828601611f38565b9150509250929050565b600080600080600080600060e0888a0312156121b357600080fd5b60006121c18a828b01611e7b565b97505060206121d28a828b01611f38565b96505060406121e38a828b01611f38565b955050606088013567ffffffffffffffff81111561220057600080fd5b61220c8a828b01611ee4565b945050608061221d8a828b01611ea5565b93505060a061222e8a828b01611ea5565b92505060c061223f8a828b01611f4d565b91505092959891949750929550565b60006020828403121561226057600080fd5b600061226e84828501611eba565b91505092915050565b60006020828403121561228957600080fd5b600061229784828501611ecf565b91505092915050565b6000602082840312156122b257600080fd5b600082013567ffffffffffffffff8111156122cc57600080fd5b6122d884828501611f0e565b91505092915050565b6000602082840312156122f357600080fd5b600061230184828501611f38565b91505092915050565b61231381612d39565b82525050565b61232281612cae565b82525050565b61233961233482612cae565b612e81565b82525050565b61234881612cc0565b82525050565b61235781612ccc565b82525050565b61236e61236982612ccc565b612e93565b82525050565b600061237f82612bd6565b6123898185612bec565b9350612399818560208601612da2565b6123a281612f46565b840191505092915050565b60006123b882612bd6565b6123c28185612bfd565b93506123d2818560208601612da2565b80840191505092915050565b6123ef6123ea82612d4b565b612e81565b82525050565b600061240082612be1565b61240a8185612c08565b935061241a818560208601612da2565b61242381612f46565b840191505092915050565b600061243b601c83612c19565b915061244682612f64565b601c82019050919050565b600061245e603283612c08565b915061246982612f8d565b604082019050919050565b6000612481601c83612c08565b915061248c82612fdc565b602082019050919050565b60006124a4602583612c08565b91506124af82613005565b604082019050919050565b60006124c7601c83612c08565b91506124d282613054565b602082019050919050565b60006124ea601b83612c08565b91506124f58261307d565b602082019050919050565b600061250d602483612c08565b9150612518826130a6565b604082019050919050565b6000612530601983612c08565b915061253b826130f5565b602082019050919050565b6000612553601183612c08565b915061255e8261311e565b602082019050919050565b6000612576602c83612c08565b915061258182613147565b604082019050919050565b6000612599603883612c08565b91506125a482613196565b604082019050919050565b60006125bc602a83612c08565b91506125c7826131e5565b604082019050919050565b60006125df602983612c08565b91506125ea82613234565b604082019050919050565b6000612602602083612c08565b915061260d82613283565b602082019050919050565b6000612625602c83612c08565b9150612630826132ac565b604082019050919050565b6000612648602c83612c08565b9150612653826132fb565b604082019050919050565b600061266b602183612c08565b91506126768261334a565b604082019050919050565b600061268e602183612c08565b915061269982613399565b604082019050919050565b60006126b1603183612c08565b91506126bc826133e8565b604082019050919050565b6126d081612d22565b82525050565b6126e76126e282612d22565b612eaf565b82525050565b6126f681612d2c565b82525050565b600061270882846123ad565b915081905092915050565b600061271f82856123ad565b915061272b8284612328565b6014820191508190509392505050565b60006127468261242e565b9150612752828461235d565b60208201915081905092915050565b600061276d82876126d6565b60208201915061277d82866123de565b60148201915061278d82856126d6565b60208201915061279d82846123ad565b915081905095945050505050565b60006020820190506127c06000830184612319565b92915050565b60006060820190506127db6000830186612319565b6127e8602083018561230a565b81810360408301526127fa8184612374565b9050949350505050565b60006080820190506128196000830187612319565b6128266020830186612319565b61283360408301856126c7565b81810360608301526128458184612374565b905095945050505050565b6000602082019050612865600083018461233f565b92915050565b6000608082019050612880600083018761234e565b61288d60208301866126ed565b61289a604083018561234e565b6128a7606083018461234e565b95945050505050565b600060208201905081810360008301526128ca8184612374565b905092915050565b600060208201905081810360008301526128ec81846123f5565b905092915050565b6000602082019050818103600083015261290d81612451565b9050919050565b6000602082019050818103600083015261292d81612474565b9050919050565b6000602082019050818103600083015261294d81612497565b9050919050565b6000602082019050818103600083015261296d816124ba565b9050919050565b6000602082019050818103600083015261298d816124dd565b9050919050565b600060208201905081810360008301526129ad81612500565b9050919050565b600060208201905081810360008301526129cd81612523565b9050919050565b600060208201905081810360008301526129ed81612546565b9050919050565b60006020820190508181036000830152612a0d81612569565b9050919050565b60006020820190508181036000830152612a2d8161258c565b9050919050565b60006020820190508181036000830152612a4d816125af565b9050919050565b60006020820190508181036000830152612a6d816125d2565b9050919050565b60006020820190508181036000830152612a8d816125f5565b9050919050565b60006020820190508181036000830152612aad81612618565b9050919050565b60006020820190508181036000830152612acd8161263b565b9050919050565b60006020820190508181036000830152612aed8161265e565b9050919050565b60006020820190508181036000830152612b0d81612681565b9050919050565b60006020820190508181036000830152612b2d816126a4565b9050919050565b6000602082019050612b4960008301846126c7565b92915050565b6000612b59612b6a565b9050612b658282612e07565b919050565b6000604051905090565b600067ffffffffffffffff821115612b8f57612b8e612f17565b5b612b9882612f46565b9050602081019050919050565b600067ffffffffffffffff821115612bc057612bbf612f17565b5b612bc982612f46565b9050602081019050919050565b600081519050919050565b600081519050919050565b600082825260208201905092915050565b600081905092915050565b600082825260208201905092915050565b600081905092915050565b6000612c2f82612d22565b9150612c3a83612d22565b9250827fffffffffffffffffffffffffffffffffffffffffffffffffffffffffffffffff03821115612c6f57612c6e612eb9565b5b828201905092915050565b6000612c8582612d22565b9150612c9083612d22565b925082821015612ca357612ca2612eb9565b5b828203905092915050565b6000612cb982612d02565b9050919050565b60008115159050919050565b6000819050919050565b60007fffffffff0000000000000000000000000000000000000000000000000000000082169050919050565b600073ffffffffffffffffffffffffffffffffffffffff82169050919050565b6000819050919050565b600060ff82169050919050565b6000612d4482612d6f565b9050919050565b6000612d5682612d5d565b9050919050565b6000612d6882612d02565b9050919050565b6000612d7a82612d81565b9050919050565b6000612d8c82612d02565b9050919050565b82818337600083830152505050565b60005b83811015612dc0578082015181840152602081019050612da5565b83811115612dcf576000848401525b50505050565b60006002820490506001821680612ded57607f821691505b60208210811415612e0157612e00612ee8565b5b50919050565b612e1082612f46565b810181811067ffffffffffffffff82111715612e2f57612e2e612f17565b5b80604052505050565b6000612e4382612d22565b91507fffffffffffffffffffffffffffffffffffffffffffffffffffffffffffffffff821415612e7657612e75612eb9565b5b600182019050919050565b6000612e8c82612e9d565b9050919050565b6000819050919050565b6000612ea882612f57565b9050919050565b6000819050919050565b7f4e487b7100000000000000000000000000000000000000000000000000000000600052601160045260246000fd5b7f4e487b7100000000000000000000000000000000000000000000000000000000600052602260045260246000fd5b7f4e487b7100000000000000000000000000000000000000000000000000000000600052604160045260246000fd5b6000601f19601f8301169050919050565b60008160601b9050919050565b7f19457468657265756d205369676e6564204d6573736167653a0a333200000000600082015250565b7f4552433732313a207472616e7366657220746f206e6f6e20455243373231526560008201527f63656976657220696d706c656d656e7465720000000000000000000000000000602082015250565b7f46756e6374696f6e2063616c6c206e6f74207375636365737366756c00000000600082015250565b7f4552433732313a207472616e736665722066726f6d20696e636f72726563742060008201527f6f776e6572000000000000000000000000000000000000000000000000000000602082015250565b7f4552433732313a20746f6b656e20616c7265616479206d696e74656400000000600082015250565b7f536166654d6174683a206164646974696f6e206f766572666c6f770000000000600082015250565b7f4552433732313a207472616e7366657220746f20746865207a65726f2061646460008201527f7265737300000000000000000000000000000000000000000000000000000000602082015250565b7f4552433732313a20617070726f766520746f2063616c6c657200000000000000600082015250565b7f496e76616c6964207369676e6174757265000000000000000000000000000000600082015250565b7f4552433732313a206f70657261746f7220717565727920666f72206e6f6e657860008201527f697374656e7420746f6b656e0000000000000000000000000000000000000000602082015250565b7f4552433732313a20617070726f76652063616c6c6572206973206e6f74206f7760008201527f6e6572206e6f7220617070726f76656420666f7220616c6c0000000000000000602082015250565b7f4552433732313a2062616c616e636520717565727920666f7220746865207a6560008201527f726f206164647265737300000000000000000000000000000000000000000000602082015250565b7f4552433732313a206f776e657220717565727920666f72206e6f6e657869737460008201527f656e7420746f6b656e0000000000000000000000000000000000000000000000602082015250565b7f4552433732313a206d696e7420746f20746865207a65726f2061646472657373600082015250565b7f4552433732313a20617070726f76656420717565727920666f72206e6f6e657860008201527f697374656e7420746f6b656e0000000000000000000000000000000000000000602082015250565b7f4552433732314d657461646174613a2055524920736574206f66206e6f6e657860008201527f697374656e7420746f6b656e0000000000000000000000000000000000000000602082015250565b7f5369676e657220616e64207369676e617475726520646f206e6f74206d61746360008201527f6800000000000000000000000000000000000000000000000000000000000000602082015250565b7f4552433732313a20617070726f76616c20746f2063757272656e74206f776e6560008201527f7200000000000000000000000000000000000000000000000000000000000000602082015250565b7f4552433732313a207472616e736665722063616c6c6572206973206e6f74206f60008201527f776e6572206e6f7220617070726f766564000000000000000000000000000000602082015250565b61344081612cae565b811461344b57600080fd5b50565b61345781612cc0565b811461346257600080fd5b50565b61346e81612ccc565b811461347957600080fd5b50565b61348581612cd6565b811461349057600080fd5b50565b61349c81612d22565b81146134a757600080fd5b50565b6134b381612d2c565b81146134be57600080fd5b5056fea26469706673582212209d2c2686cf91b566174edc47911c72109947dfcc7fd52c0ddf2e4a5710a5baa864736f6c63430008040033",
  "linkReferences": {},
  "deployedLinkReferences": {}
}