{
  "_format": "hh-sol-artifact-1",
  "contractName": "SampleNFT",
  "sourceName": "contracts/SampleNFT.sol",
  "abi": [
    {
      "inputs": [
        {
          "internalType": "string",
          "name": "name",
          "type": "string"
        },
        {
          "internalType": "string",
          "name": "symbol",
          "type": "string"
        }
      ],
      "stateMutability": "nonpayable",
      "type": "constructor"
    },
    {
      "anonymous": false,
      "inputs": [
        {
          "indexed": true,
          "internalType": "address",
          "name": "owner",
          "type": "address"
        },
        {
          "indexed": true,
          "internalType": "address",
          "name": "approved",
          "type": "address"
        },
        {
          "indexed": true,
          "internalType": "uint256",
          "name": "tokenId",
          "type": "uint256"
        }
      ],
      "name": "Approval",
      "type": "event"
    },
    {
      "anonymous": false,
      "inputs": [
        {
          "indexed": true,
          "internalType": "address",
          "name": "owner",
          "type": "address"
        },
        {
          "indexed": true,
          "internalType": "address",
          "name": "operator",
          "type": "address"
        },
        {
          "indexed": false,
          "internalType": "bool",
          "name": "approved",
          "type": "bool"
        }
      ],
      "name": "ApprovalForAll",
      "type": "event"
    },
    {
      "anonymous": false,
      "inputs": [
        {
          "indexed": true,
          "internalType": "address",
          "name": "from",
          "type": "address"
        },
        {
          "indexed": true,
          "internalType": "address",
          "name": "to",
          "type": "address"
        },
        {
          "indexed": true,
          "internalType": "uint256",
          "name": "tokenId",
          "type": "uint256"
        }
      ],
      "name": "Transfer",
      "type": "event"
    },
    {
      "inputs": [
        {
          "internalType": "address",
          "name": "to",
          "type": "address"
        },
        {
          "internalType": "uint256",
          "name": "tokenId",
          "type": "uint256"
        }
      ],
      "name": "approve",
      "outputs": [],
      "stateMutability": "nonpayable",
      "type": "function"
    },
    {
      "inputs": [
        {
          "internalType": "address",
          "name": "owner",
          "type": "address"
        }
      ],
      "name": "balanceOf",
      "outputs": [
        {
          "internalType": "uint256",
          "name": "",
          "type": "uint256"
        }
      ],
      "stateMutability": "view",
      "type": "function"
    },
    {
      "inputs": [
        {
          "internalType": "uint256",
          "name": "tokenId",
          "type": "uint256"
        }
      ],
      "name": "getApproved",
      "outputs": [
        {
          "internalType": "address",
          "name": "",
          "type": "address"
        }
      ],
      "stateMutability": "view",
      "type": "function"
    },
    {
      "inputs": [
        {
          "internalType": "address",
          "name": "owner",
          "type": "address"
        },
        {
          "internalType": "address",
          "name": "operator",
          "type": "address"
        }
      ],
      "name": "isApprovedForAll",
      "outputs": [
        {
          "internalType": "bool",
          "name": "",
          "type": "bool"
        }
      ],
      "stateMutability": "view",
      "type": "function"
    },
    {
      "inputs": [
        {
          "internalType": "string",
          "name": "_tokenURI",
          "type": "string"
        }
      ],
      "name": "mint",
      "outputs": [],
      "stateMutability": "nonpayable",
      "type": "function"
    },
    {
      "inputs": [],
      "name": "name",
      "outputs": [
        {
          "internalType": "string",
          "name": "",
          "type": "string"
        }
      ],
      "stateMutability": "view",
      "type": "function"
    },
    {
      "inputs": [
        {
          "internalType": "uint256",
          "name": "tokenId",
          "type": "uint256"
        }
      ],
      "name": "ownerOf",
      "outputs": [
        {
          "internalType": "address",
          "name": "",
          "type": "address"
        }
      ],
      "stateMutability": "view",
      "type": "function"
    },
    {
      "inputs": [
        {
          "internalType": "address",
          "name": "from",
          "type": "address"
        },
        {
          "internalType": "address",
          "name": "to",
          "type": "address"
        },
        {
          "internalType": "uint256",
          "name": "tokenId",
          "type": "uint256"
        }
      ],
      "name": "safeTransferFrom",
      "outputs": [],
      "stateMutability": "nonpayable",
      "type": "function"
    },
    {
      "inputs": [
        {
          "internalType": "address",
          "name": "from",
          "type": "address"
        },
        {
          "internalType": "address",
          "name": "to",
          "type": "address"
        },
        {
          "internalType": "uint256",
          "name": "tokenId",
          "type": "uint256"
        },
        {
          "internalType": "bytes",
          "name": "_data",
          "type": "bytes"
        }
      ],
      "name": "safeTransferFrom",
      "outputs": [],
      "stateMutability": "nonpayable",
      "type": "function"
    },
    {
      "inputs": [
        {
          "internalType": "address",
          "name": "operator",
          "type": "address"
        },
        {
          "internalType": "bool",
          "name": "approved",
          "type": "bool"
        }
      ],
      "name": "setApprovalForAll",
      "outputs": [],
      "stateMutability": "nonpayable",
      "type": "function"
    },
    {
      "inputs": [
        {
          "internalType": "bytes4",
          "name": "interfaceId",
          "type": "bytes4"
        }
      ],
      "name": "supportsInterface",
      "outputs": [
        {
          "internalType": "bool",
          "name": "",
          "type": "bool"
        }
      ],
      "stateMutability": "view",
      "type": "function"
    },
    {
      "inputs": [],
      "name": "symbol",
      "outputs": [
        {
          "internalType": "string",
          "name": "",
          "type": "string"
        }
      ],
      "stateMutability": "view",
      "type": "function"
    },
    {
      "inputs": [],
      "name": "tokenCounter",
      "outputs": [
        {
          "internalType": "uint256",
          "name": "",
          "type": "uint256"
        }
      ],
      "stateMutability": "view",
      "type": "function"
    },
    {
      "inputs": [
        {
          "internalType": "uint256",
          "name": "_tokenId",
          "type": "uint256"
        }
      ],
      "name": "tokenURI",
      "outputs": [
        {
          "internalType": "string",
          "name": "",
          "type": "string"
        }
      ],
      "stateMutability": "view",
      "type": "function"
    },
    {
      "inputs": [
        {
          "internalType": "address",
          "name": "from",
          "type": "address"
        },
        {
          "internalType": "address",
          "name": "to",
          "type": "address"
        },
        {
          "internalType": "uint256",
          "name": "tokenId",
          "type": "uint256"
        }
      ],
      "name": "transferFrom",
      "outputs": [],
      "stateMutability": "nonpayable",
      "type": "function"
    }
  ],
  "bytecode": "0x60806040523480156200001157600080fd5b5060405162002a9f38038062002a9f83398181016040528101906200003791906200019f565b81818160009080519060200190620000519291906200007d565b5080600190805190602001906200006a9291906200007d565b5050506000600681905550505062000382565b8280546200008b90620002a7565b90600052602060002090601f016020900481019282620000af5760008555620000fb565b82601f10620000ca57805160ff1916838001178555620000fb565b82800160010185558215620000fb579182015b82811115620000fa578251825591602001919060010190620000dd565b5b5090506200010a91906200010e565b5090565b5b80821115620001295760008160009055506001016200010f565b5090565b6000620001446200013e846200023b565b62000212565b9050828152602081018484840111156200015d57600080fd5b6200016a84828562000271565b509392505050565b600082601f8301126200018457600080fd5b8151620001968482602086016200012d565b91505092915050565b60008060408385031215620001b357600080fd5b600083015167ffffffffffffffff811115620001ce57600080fd5b620001dc8582860162000172565b925050602083015167ffffffffffffffff811115620001fa57600080fd5b620002088582860162000172565b9150509250929050565b60006200021e62000231565b90506200022c8282620002dd565b919050565b6000604051905090565b600067ffffffffffffffff82111562000259576200025862000342565b5b620002648262000371565b9050602081019050919050565b60005b838110156200029157808201518184015260208101905062000274565b83811115620002a1576000848401525b50505050565b60006002820490506001821680620002c057607f821691505b60208210811415620002d757620002d662000313565b5b50919050565b620002e88262000371565b810181811067ffffffffffffffff821117156200030a576200030962000342565b5b80604052505050565b7f4e487b7100000000000000000000000000000000000000000000000000000000600052602260045260246000fd5b7f4e487b7100000000000000000000000000000000000000000000000000000000600052604160045260246000fd5b6000601f19601f8301169050919050565b61270d80620003926000396000f3fe608060405234801561001057600080fd5b50600436106100f55760003560e01c806370a0823111610097578063c87b56dd11610066578063c87b56dd14610282578063d082e381146102b2578063d85d3d27146102d0578063e985e9c5146102ec576100f5565b806370a08231146101fc57806395d89b411461022c578063a22cb4651461024a578063b88d4fde14610266576100f5565b8063095ea7b3116100d3578063095ea7b31461017857806323b872dd1461019457806342842e0e146101b05780636352211e146101cc576100f5565b806301ffc9a7146100fa57806306fdde031461012a578063081812fc14610148575b600080fd5b610114600480360381019061010f919061198e565b61031c565b6040516101219190611d3a565b60405180910390f35b6101326103fe565b60405161013f9190611d55565b60405180910390f35b610162600480360381019061015d9190611a21565b610490565b60405161016f9190611cd3565b60405180910390f35b610192600480360381019061018d9190611952565b610515565b005b6101ae60048036038101906101a9919061184c565b61062d565b005b6101ca60048036038101906101c5919061184c565b61068d565b005b6101e660048036038101906101e19190611a21565b6106ad565b6040516101f39190611cd3565b60405180910390f35b610216600480360381019061021191906117e7565b61075f565b6040516102239190611f37565b60405180910390f35b610234610817565b6040516102419190611d55565b60405180910390f35b610264600480360381019061025f9190611916565b6108a9565b005b610280600480360381019061027b919061189b565b6108bf565b005b61029c60048036038101906102979190611a21565b610921565b6040516102a99190611d55565b60405180910390f35b6102ba610a0e565b6040516102c79190611f37565b60405180910390f35b6102ea60048036038101906102e591906119e0565b610a14565b005b61030660048036038101906103019190611810565b610a47565b6040516103139190611d3a565b60405180910390f35b60007f80ac58cd000000000000000000000000000000000000000000000000000000007bffffffffffffffffffffffffffffffffffffffffffffffffffffffff1916827bffffffffffffffffffffffffffffffffffffffffffffffffffffffff191614806103e757507f5b5e139f000000000000000000000000000000000000000000000000000000007bffffffffffffffffffffffffffffffffffffffffffffffffffffffff1916827bffffffffffffffffffffffffffffffffffffffffffffffffffffffff1916145b806103f757506103f682610adb565b5b9050919050565b60606000805461040d90612151565b80601f016020809104026020016040519081016040528092919081815260200182805461043990612151565b80156104865780601f1061045b57610100808354040283529160200191610486565b820191906000526020600020905b81548152906001019060200180831161046957829003601f168201915b5050505050905090565b600061049b82610b45565b6104da576040517f08c379a00000000000000000000000000000000000000000000000000000000081526004016104d190611eb7565b60405180910390fd5b6004600083815260200190815260200160002060009054906101000a900473ffffffffffffffffffffffffffffffffffffffff169050919050565b6000610520826106ad565b90508073ffffffffffffffffffffffffffffffffffffffff168373ffffffffffffffffffffffffffffffffffffffff161415610591576040517f08c379a000000000000000000000000000000000000000000000000000000000815260040161058890611ef7565b60405180910390fd5b8073ffffffffffffffffffffffffffffffffffffffff166105b0610bb1565b73ffffffffffffffffffffffffffffffffffffffff1614806105df57506105de816105d9610bb1565b610a47565b5b61061e576040517f08c379a000000000000000000000000000000000000000000000000000000000815260040161061590611e37565b60405180910390fd5b6106288383610bb9565b505050565b61063e610638610bb1565b82610c72565b61067d576040517f08c379a000000000000000000000000000000000000000000000000000000000815260040161067490611f17565b60405180910390fd5b610688838383610d50565b505050565b6106a8838383604051806020016040528060008152506108bf565b505050565b6000806002600084815260200190815260200160002060009054906101000a900473ffffffffffffffffffffffffffffffffffffffff169050600073ffffffffffffffffffffffffffffffffffffffff168173ffffffffffffffffffffffffffffffffffffffff161415610756576040517f08c379a000000000000000000000000000000000000000000000000000000000815260040161074d90611e77565b60405180910390fd5b80915050919050565b60008073ffffffffffffffffffffffffffffffffffffffff168273ffffffffffffffffffffffffffffffffffffffff1614156107d0576040517f08c379a00000000000000000000000000000000000000000000000000000000081526004016107c790611e57565b60405180910390fd5b600360008373ffffffffffffffffffffffffffffffffffffffff1673ffffffffffffffffffffffffffffffffffffffff168152602001908152602001600020549050919050565b60606001805461082690612151565b80601f016020809104026020016040519081016040528092919081815260200182805461085290612151565b801561089f5780601f106108745761010080835404028352916020019161089f565b820191906000526020600020905b81548152906001019060200180831161088257829003601f168201915b5050505050905090565b6108bb6108b4610bb1565b8383610fb7565b5050565b6108d06108ca610bb1565b83610c72565b61090f576040517f08c379a000000000000000000000000000000000000000000000000000000000815260040161090690611f17565b60405180910390fd5b61091b84848484611124565b50505050565b606061092c82610b45565b61096b576040517f08c379a000000000000000000000000000000000000000000000000000000000815260040161096290611ed7565b60405180910390fd5b60076000838152602001908152602001600020805461098990612151565b80601f01602080910402602001604051908101604052809291908181526020018280546109b590612151565b8015610a025780601f106109d757610100808354040283529160200191610a02565b820191906000526020600020905b8154815290600101906020018083116109e557829003601f168201915b50505050509050919050565b60065481565b610a2033600654611180565b610a2c6006548261119e565b60066000815480929190610a3f906121b4565b919050555050565b6000600560008473ffffffffffffffffffffffffffffffffffffffff1673ffffffffffffffffffffffffffffffffffffffff16815260200190815260200160002060008373ffffffffffffffffffffffffffffffffffffffff1673ffffffffffffffffffffffffffffffffffffffff16815260200190815260200160002060009054906101000a900460ff16905092915050565b60007f01ffc9a7000000000000000000000000000000000000000000000000000000007bffffffffffffffffffffffffffffffffffffffffffffffffffffffff1916827bffffffffffffffffffffffffffffffffffffffffffffffffffffffff1916149050919050565b60008073ffffffffffffffffffffffffffffffffffffffff166002600084815260200190815260200160002060009054906101000a900473ffffffffffffffffffffffffffffffffffffffff1673ffffffffffffffffffffffffffffffffffffffff1614159050919050565b600033905090565b816004600083815260200190815260200160002060006101000a81548173ffffffffffffffffffffffffffffffffffffffff021916908373ffffffffffffffffffffffffffffffffffffffff160217905550808273ffffffffffffffffffffffffffffffffffffffff16610c2c836106ad565b73ffffffffffffffffffffffffffffffffffffffff167f8c5be1e5ebec7d5bd14f71427d1e84f3dd0314c0f7b2291e5b200ac8c7c3b92560405160405180910390a45050565b6000610c7d82610b45565b610cbc576040517f08c379a0000000000000000000000000000000000000000000000000000000008152600401610cb390611e17565b60405180910390fd5b6000610cc7836106ad565b90508073ffffffffffffffffffffffffffffffffffffffff168473ffffffffffffffffffffffffffffffffffffffff161480610d3657508373ffffffffffffffffffffffffffffffffffffffff16610d1e84610490565b73ffffffffffffffffffffffffffffffffffffffff16145b80610d475750610d468185610a47565b5b91505092915050565b8273ffffffffffffffffffffffffffffffffffffffff16610d70826106ad565b73ffffffffffffffffffffffffffffffffffffffff1614610dc6576040517f08c379a0000000000000000000000000000000000000000000000000000000008152600401610dbd90611d97565b60405180910390fd5b600073ffffffffffffffffffffffffffffffffffffffff168273ffffffffffffffffffffffffffffffffffffffff161415610e36576040517f08c379a0000000000000000000000000000000000000000000000000000000008152600401610e2d90611dd7565b60405180910390fd5b610e41838383611212565b610e4c600082610bb9565b6001600360008573ffffffffffffffffffffffffffffffffffffffff1673ffffffffffffffffffffffffffffffffffffffff1681526020019081526020016000206000828254610e9c9190612067565b925050819055506001600360008473ffffffffffffffffffffffffffffffffffffffff1673ffffffffffffffffffffffffffffffffffffffff1681526020019081526020016000206000828254610ef39190612011565b92505081905550816002600083815260200190815260200160002060006101000a81548173ffffffffffffffffffffffffffffffffffffffff021916908373ffffffffffffffffffffffffffffffffffffffff160217905550808273ffffffffffffffffffffffffffffffffffffffff168473ffffffffffffffffffffffffffffffffffffffff167fddf252ad1be2c89b69c2b068fc378daa952ba7f163c4a11628f55a4df523b3ef60405160405180910390a4610fb2838383611217565b505050565b8173ffffffffffffffffffffffffffffffffffffffff168373ffffffffffffffffffffffffffffffffffffffff161415611026576040517f08c379a000000000000000000000000000000000000000000000000000000000815260040161101d90611df7565b60405180910390fd5b80600560008573ffffffffffffffffffffffffffffffffffffffff1673ffffffffffffffffffffffffffffffffffffffff16815260200190815260200160002060008473ffffffffffffffffffffffffffffffffffffffff1673ffffffffffffffffffffffffffffffffffffffff16815260200190815260200160002060006101000a81548160ff0219169083151502179055508173ffffffffffffffffffffffffffffffffffffffff168373ffffffffffffffffffffffffffffffffffffffff167f17307eab39ab6107e8899845ad3d59bd9653f200f220920489ca2b5937696c31836040516111179190611d3a565b60405180910390a3505050565b61112f848484610d50565b61113b8484848461121c565b61117a576040517f08c379a000000000000000000000000000000000000000000000000000000000815260040161117190611d77565b60405180910390fd5b50505050565b61119a8282604051806020016040528060008152506113b3565b5050565b6111a782610b45565b6111e6576040517f08c379a00000000000000000000000000000000000000000000000000000000081526004016111dd90611ed7565b60405180910390fd5b8060076000848152602001908152602001600020908051906020019061120d92919061160b565b505050565b505050565b505050565b600061123d8473ffffffffffffffffffffffffffffffffffffffff1661140e565b156113a6578373ffffffffffffffffffffffffffffffffffffffff1663150b7a02611266610bb1565b8786866040518563ffffffff1660e01b81526004016112889493929190611cee565b602060405180830381600087803b1580156112a257600080fd5b505af19250505080156112d357506040513d601f19601f820116820180604052508101906112d091906119b7565b60015b611356573d8060008114611303576040519150601f19603f3d011682016040523d82523d6000602084013e611308565b606091505b5060008151141561134e576040517f08c379a000000000000000000000000000000000000000000000000000000000815260040161134590611d77565b60405180910390fd5b805181602001fd5b63150b7a0260e01b7bffffffffffffffffffffffffffffffffffffffffffffffffffffffff1916817bffffffffffffffffffffffffffffffffffffffffffffffffffffffff1916149150506113ab565b600190505b949350505050565b6113bd8383611431565b6113ca600084848461121c565b611409576040517f08c379a000000000000000000000000000000000000000000000000000000000815260040161140090611d77565b60405180910390fd5b505050565b6000808273ffffffffffffffffffffffffffffffffffffffff163b119050919050565b600073ffffffffffffffffffffffffffffffffffffffff168273ffffffffffffffffffffffffffffffffffffffff1614156114a1576040517f08c379a000000000000000000000000000000000000000000000000000000000815260040161149890611e97565b60405180910390fd5b6114aa81610b45565b156114ea576040517f08c379a00000000000000000000000000000000000000000000000000000000081526004016114e190611db7565b60405180910390fd5b6114f660008383611212565b6001600360008473ffffffffffffffffffffffffffffffffffffffff1673ffffffffffffffffffffffffffffffffffffffff16815260200190815260200160002060008282546115469190612011565b92505081905550816002600083815260200190815260200160002060006101000a81548173ffffffffffffffffffffffffffffffffffffffff021916908373ffffffffffffffffffffffffffffffffffffffff160217905550808273ffffffffffffffffffffffffffffffffffffffff16600073ffffffffffffffffffffffffffffffffffffffff167fddf252ad1be2c89b69c2b068fc378daa952ba7f163c4a11628f55a4df523b3ef60405160405180910390a461160760008383611217565b5050565b82805461161790612151565b90600052602060002090601f0160209004810192826116395760008555611680565b82601f1061165257805160ff1916838001178555611680565b82800160010185558215611680579182015b8281111561167f578251825591602001919060010190611664565b5b50905061168d9190611691565b5090565b5b808211156116aa576000816000905550600101611692565b5090565b60006116c16116bc84611f77565b611f52565b9050828152602081018484840111156116d957600080fd5b6116e484828561210f565b509392505050565b60006116ff6116fa84611fa8565b611f52565b90508281526020810184848401111561171757600080fd5b61172284828561210f565b509392505050565b6000813590506117398161267b565b92915050565b60008135905061174e81612692565b92915050565b600081359050611763816126a9565b92915050565b600081519050611778816126a9565b92915050565b600082601f83011261178f57600080fd5b813561179f8482602086016116ae565b91505092915050565b600082601f8301126117b957600080fd5b81356117c98482602086016116ec565b91505092915050565b6000813590506117e1816126c0565b92915050565b6000602082840312156117f957600080fd5b60006118078482850161172a565b91505092915050565b6000806040838503121561182357600080fd5b60006118318582860161172a565b92505060206118428582860161172a565b9150509250929050565b60008060006060848603121561186157600080fd5b600061186f8682870161172a565b93505060206118808682870161172a565b9250506040611891868287016117d2565b9150509250925092565b600080600080608085870312156118b157600080fd5b60006118bf8782880161172a565b94505060206118d08782880161172a565b93505060406118e1878288016117d2565b925050606085013567ffffffffffffffff8111156118fe57600080fd5b61190a8782880161177e565b91505092959194509250565b6000806040838503121561192957600080fd5b60006119378582860161172a565b92505060206119488582860161173f565b9150509250929050565b6000806040838503121561196557600080fd5b60006119738582860161172a565b9250506020611984858286016117d2565b9150509250929050565b6000602082840312156119a057600080fd5b60006119ae84828501611754565b91505092915050565b6000602082840312156119c957600080fd5b60006119d784828501611769565b91505092915050565b6000602082840312156119f257600080fd5b600082013567ffffffffffffffff811115611a0c57600080fd5b611a18848285016117a8565b91505092915050565b600060208284031215611a3357600080fd5b6000611a41848285016117d2565b91505092915050565b611a538161209b565b82525050565b611a62816120ad565b82525050565b6000611a7382611fd9565b611a7d8185611fef565b9350611a8d81856020860161211e565b611a968161228a565b840191505092915050565b6000611aac82611fe4565b611ab68185612000565b9350611ac681856020860161211e565b611acf8161228a565b840191505092915050565b6000611ae7603283612000565b9150611af28261229b565b604082019050919050565b6000611b0a602583612000565b9150611b15826122ea565b604082019050919050565b6000611b2d601c83612000565b9150611b3882612339565b602082019050919050565b6000611b50602483612000565b9150611b5b82612362565b604082019050919050565b6000611b73601983612000565b9150611b7e826123b1565b602082019050919050565b6000611b96602c83612000565b9150611ba1826123da565b604082019050919050565b6000611bb9603883612000565b9150611bc482612429565b604082019050919050565b6000611bdc602a83612000565b9150611be782612478565b604082019050919050565b6000611bff602983612000565b9150611c0a826124c7565b604082019050919050565b6000611c22602083612000565b9150611c2d82612516565b602082019050919050565b6000611c45602c83612000565b9150611c508261253f565b604082019050919050565b6000611c68602c83612000565b9150611c738261258e565b604082019050919050565b6000611c8b602183612000565b9150611c96826125dd565b604082019050919050565b6000611cae603183612000565b9150611cb98261262c565b604082019050919050565b611ccd81612105565b82525050565b6000602082019050611ce86000830184611a4a565b92915050565b6000608082019050611d036000830187611a4a565b611d106020830186611a4a565b611d1d6040830185611cc4565b8181036060830152611d2f8184611a68565b905095945050505050565b6000602082019050611d4f6000830184611a59565b92915050565b60006020820190508181036000830152611d6f8184611aa1565b905092915050565b60006020820190508181036000830152611d9081611ada565b9050919050565b60006020820190508181036000830152611db081611afd565b9050919050565b60006020820190508181036000830152611dd081611b20565b9050919050565b60006020820190508181036000830152611df081611b43565b9050919050565b60006020820190508181036000830152611e1081611b66565b9050919050565b60006020820190508181036000830152611e3081611b89565b9050919050565b60006020820190508181036000830152611e5081611bac565b9050919050565b60006020820190508181036000830152611e7081611bcf565b9050919050565b60006020820190508181036000830152611e9081611bf2565b9050919050565b60006020820190508181036000830152611eb081611c15565b9050919050565b60006020820190508181036000830152611ed081611c38565b9050919050565b60006020820190508181036000830152611ef081611c5b565b9050919050565b60006020820190508181036000830152611f1081611c7e565b9050919050565b60006020820190508181036000830152611f3081611ca1565b9050919050565b6000602082019050611f4c6000830184611cc4565b92915050565b6000611f5c611f6d565b9050611f688282612183565b919050565b6000604051905090565b600067ffffffffffffffff821115611f9257611f9161225b565b5b611f9b8261228a565b9050602081019050919050565b600067ffffffffffffffff821115611fc357611fc261225b565b5b611fcc8261228a565b9050602081019050919050565b600081519050919050565b600081519050919050565b600082825260208201905092915050565b600082825260208201905092915050565b600061201c82612105565b915061202783612105565b9250827fffffffffffffffffffffffffffffffffffffffffffffffffffffffffffffffff0382111561205c5761205b6121fd565b5b828201905092915050565b600061207282612105565b915061207d83612105565b9250828210156120905761208f6121fd565b5b828203905092915050565b60006120a6826120e5565b9050919050565b60008115159050919050565b60007fffffffff0000000000000000000000000000000000000000000000000000000082169050919050565b600073ffffffffffffffffffffffffffffffffffffffff82169050919050565b6000819050919050565b82818337600083830152505050565b60005b8381101561213c578082015181840152602081019050612121565b8381111561214b576000848401525b50505050565b6000600282049050600182168061216957607f821691505b6020821081141561217d5761217c61222c565b5b50919050565b61218c8261228a565b810181811067ffffffffffffffff821117156121ab576121aa61225b565b5b80604052505050565b60006121bf82612105565b91507fffffffffffffffffffffffffffffffffffffffffffffffffffffffffffffffff8214156121f2576121f16121fd565b5b600182019050919050565b7f4e487b7100000000000000000000000000000000000000000000000000000000600052601160045260246000fd5b7f4e487b7100000000000000000000000000000000000000000000000000000000600052602260045260246000fd5b7f4e487b7100000000000000000000000000000000000000000000000000000000600052604160045260246000fd5b6000601f19601f8301169050919050565b7f4552433732313a207472616e7366657220746f206e6f6e20455243373231526560008201527f63656976657220696d706c656d656e7465720000000000000000000000000000602082015250565b7f4552433732313a207472616e736665722066726f6d20696e636f72726563742060008201527f6f776e6572000000000000000000000000000000000000000000000000000000602082015250565b7f4552433732313a20746f6b656e20616c7265616479206d696e74656400000000600082015250565b7f4552433732313a207472616e7366657220746f20746865207a65726f2061646460008201527f7265737300000000000000000000000000000000000000000000000000000000602082015250565b7f4552433732313a20617070726f766520746f2063616c6c657200000000000000600082015250565b7f4552433732313a206f70657261746f7220717565727920666f72206e6f6e657860008201527f697374656e7420746f6b656e0000000000000000000000000000000000000000602082015250565b7f4552433732313a20617070726f76652063616c6c6572206973206e6f74206f7760008201527f6e6572206e6f7220617070726f76656420666f7220616c6c0000000000000000602082015250565b7f4552433732313a2062616c616e636520717565727920666f7220746865207a6560008201527f726f206164647265737300000000000000000000000000000000000000000000602082015250565b7f4552433732313a206f776e657220717565727920666f72206e6f6e657869737460008201527f656e7420746f6b656e0000000000000000000000000000000000000000000000602082015250565b7f4552433732313a206d696e7420746f20746865207a65726f2061646472657373600082015250565b7f4552433732313a20617070726f76656420717565727920666f72206e6f6e657860008201527f697374656e7420746f6b656e0000000000000000000000000000000000000000602082015250565b7f4552433732314d657461646174613a2055524920736574206f66206e6f6e657860008201527f697374656e7420746f6b656e0000000000000000000000000000000000000000602082015250565b7f4552433732313a20617070726f76616c20746f2063757272656e74206f776e6560008201527f7200000000000000000000000000000000000000000000000000000000000000602082015250565b7f4552433732313a207472616e736665722063616c6c6572206973206e6f74206f60008201527f776e6572206e6f7220617070726f766564000000000000000000000000000000602082015250565b6126848161209b565b811461268f57600080fd5b50565b61269b816120ad565b81146126a657600080fd5b50565b6126b2816120b9565b81146126bd57600080fd5b50565b6126c981612105565b81146126d457600080fd5b5056fea2646970667358221220bdbd93ac52c417a0d9b88b1acb2657939562e01017e137bcee5a49b85788fa6864736f6c63430008040033",
  "linkReferences": {},
  "deployedLinkReferences": {}
}