{
  "contractName": "EIP712MetaTransaction",
  "abi": [
    {
      "inputs": [
        {
          "internalType": "string",
          "name": "name",
          "type": "string"
        },
        {
          "internalType": "string",
          "name": "version",
          "type": "string"
        }
      ],
      "payable": false,
      "stateMutability": "nonpayable",
      "type": "constructor"
    },
    {
      "anonymous": false,
      "inputs": [
        {
          "indexed": false,
          "internalType": "address",
          "name": "userAddress",
          "type": "address"
        },
        {
          "indexed": false,
          "internalType": "address payable",
          "name": "relayerAddress",
          "type": "address"
        },
        {
          "indexed": false,
          "internalType": "bytes",
          "name": "functionSignature",
          "type": "bytes"
        }
      ],
      "name": "MetaTransactionExecuted",
      "type": "event"
    },
    {
      "constant": false,
      "inputs": [
        {
          "internalType": "address",
          "name": "userAddress",
          "type": "address"
        },
        {
          "internalType": "bytes",
          "name": "functionSignature",
          "type": "bytes"
        },
        {
          "internalType": "bytes32",
          "name": "sigR",
          "type": "bytes32"
        },
        {
          "internalType": "bytes32",
          "name": "sigS",
          "type": "bytes32"
        },
        {
          "internalType": "uint8",
          "name": "sigV",
          "type": "uint8"
        }
      ],
      "name": "executeMetaTransaction",
      "outputs": [
        {
          "internalType": "bytes",
          "name": "",
          "type": "bytes"
        }
      ],
      "payable": true,
      "stateMutability": "payable",
      "type": "function"
    },
    {
      "constant": true,
      "inputs": [
        {
          "internalType": "address",
          "name": "user",
          "type": "address"
        }
      ],
      "name": "getNonce",
      "outputs": [
        {
          "internalType": "uint256",
          "name": "nonce",
          "type": "uint256"
        }
      ],
      "payable": false,
      "stateMutability": "view",
      "type": "function"
    }
  ],
  "bytecode": "0x60806040523480156200001157600080fd5b506040516200117d3803806200117d83398181016040526200003791908101906200011b565b81816040518060800160405280604f81526020016200112e604f913980519060200120828051906020012082805190602001206200007a620000b760201b60201c565b3060405160200162000091959493929190620001c1565b6040516020818303038152906040528051906020012060008190555050505050620002f7565b600046905090565b600082601f830112620000d157600080fd5b8151620000e8620000e2826200024c565b6200021e565b915080825260208301602083018583830111156200010557600080fd5b62000112838284620002c1565b50505092915050565b600080604083850312156200012f57600080fd5b600083015167ffffffffffffffff8111156200014a57600080fd5b6200015885828601620000bf565b925050602083015167ffffffffffffffff8111156200017657600080fd5b6200018485828601620000bf565b9150509250929050565b620001998162000279565b82525050565b620001aa816200028d565b82525050565b620001bb81620002b7565b82525050565b600060a082019050620001d860008301886200019f565b620001e760208301876200019f565b620001f660408301866200019f565b620002056060830185620001b0565b6200021460808301846200018e565b9695505050505050565b6000604051905081810181811067ffffffffffffffff821117156200024257600080fd5b8060405250919050565b600067ffffffffffffffff8211156200026457600080fd5b601f19601f8301169050602081019050919050565b6000620002868262000297565b9050919050565b6000819050919050565b600073ffffffffffffffffffffffffffffffffffffffff82169050919050565b6000819050919050565b60005b83811015620002e1578082015181840152602081019050620002c4565b83811115620002f1576000848401525b50505050565b610e2780620003076000396000f3fe6080604052600436106100295760003560e01c80630c53c51c1461002e5780632d0335ab1461005e575b600080fd5b6100486004803603610043919081019061066d565b61009b565b6040516100559190610af3565b60405180910390f35b34801561006a57600080fd5b5061008560048036036100809190810190610644565b610315565b6040516100929190610b95565b60405180910390f35b60606100a561057a565b6040518060600160405280600160008a73ffffffffffffffffffffffffffffffffffffffff1673ffffffffffffffffffffffffffffffffffffffff1681526020019081526020016000205481526020018873ffffffffffffffffffffffffffffffffffffffff168152602001878152509050610124878287878761035e565b610163576040517f08c379a000000000000000000000000000000000000000000000000000000000815260040161015a90610b75565b60405180910390fd5b6101b560018060008a73ffffffffffffffffffffffffffffffffffffffff1673ffffffffffffffffffffffffffffffffffffffff1681526020019081526020016000205461046d90919063ffffffff16565b600160008973ffffffffffffffffffffffffffffffffffffffff1673ffffffffffffffffffffffffffffffffffffffff16815260200190815260200160002081905550600060603073ffffffffffffffffffffffffffffffffffffffff16888a33604051602001610228939291906109bb565b60405160208183030381529060405260405161024491906109a4565b6000604051808303816000865af19150503d8060008114610281576040519150601f19603f3d011682016040523d82523d6000602084013e610286565b606091505b5091509150816102cb576040517f08c379a00000000000000000000000000000000000000000000000000000000081526004016102c290610b35565b60405180910390fd5b7f5845892132946850460bff5a0083f71031bc5bf9aadcd40f1de79423eac9b10b89338a6040516102fe93929190610a2b565b60405180910390a180935050505095945050505050565b6000600160008373ffffffffffffffffffffffffffffffffffffffff1673ffffffffffffffffffffffffffffffffffffffff168152602001908152602001600020549050919050565b600080600161037461036f886104c2565b610538565b848787604051600081526020016040526040516103949493929190610aae565b6020604051602081039080840390855afa1580156103b6573d6000803e3d6000fd5b505050602060405103519050600073ffffffffffffffffffffffffffffffffffffffff168173ffffffffffffffffffffffffffffffffffffffff161415610432576040517f08c379a000000000000000000000000000000000000000000000000000000000815260040161042990610b55565b60405180910390fd5b8673ffffffffffffffffffffffffffffffffffffffff168173ffffffffffffffffffffffffffffffffffffffff161491505095945050505050565b6000808284019050838110156104b8576040517f08c379a00000000000000000000000000000000000000000000000000000000081526004016104af90610b15565b60405180910390fd5b8091505092915050565b6000604051806080016040528060438152602001610da26043913980519060200120826000015183602001518460400151604051610500919061098d565b604051809103902060405160200161051b9493929190610a69565b604051602081830303815290604052805190602001209050919050565b6000610542610571565b826040516020016105549291906109f4565b604051602081830303815290604052805190602001209050919050565b60008054905090565b604051806060016040528060008152602001600073ffffffffffffffffffffffffffffffffffffffff168152602001606081525090565b6000813590506105c081610d5c565b92915050565b6000813590506105d581610d73565b92915050565b600082601f8301126105ec57600080fd5b81356105ff6105fa82610bdd565b610bb0565b9150808252602083016020830185838301111561061b57600080fd5b610626838284610cbc565b50505092915050565b60008135905061063e81610d8a565b92915050565b60006020828403121561065657600080fd5b6000610664848285016105b1565b91505092915050565b600080600080600060a0868803121561068557600080fd5b6000610693888289016105b1565b955050602086013567ffffffffffffffff8111156106b057600080fd5b6106bc888289016105db565b94505060406106cd888289016105c6565b93505060606106de888289016105c6565b92505060806106ef8882890161062f565b9150509295509295909350565b61070581610c69565b82525050565b61071c61071782610c69565b610d10565b82525050565b61072b81610c57565b82525050565b61074261073d82610c57565b610cfe565b82525050565b61075181610c7b565b82525050565b61076861076382610c7b565b610d22565b82525050565b600061077982610c14565b6107838185610c1f565b9350610793818560208601610ccb565b61079c81610d3e565b840191505092915050565b60006107b282610c14565b6107bc8185610c30565b93506107cc818560208601610ccb565b80840191505092915050565b60006107e382610c09565b6107ed8185610c30565b93506107fd818560208601610ccb565b80840191505092915050565b6000610816600283610c4c565b91507f19010000000000000000000000000000000000000000000000000000000000006000830152600282019050919050565b6000610856601b83610c3b565b91507f536166654d6174683a206164646974696f6e206f766572666c6f7700000000006000830152602082019050919050565b6000610896601d83610c3b565b91507f46756e6374696f6e2063616c6c206e6f74207375636365737366756c6c0000006000830152602082019050919050565b60006108d6601183610c3b565b91507f496e76616c6964207369676e61747572650000000000000000000000000000006000830152602082019050919050565b6000610916602183610c3b565b91507f5369676e657220616e64207369676e617475726520646f206e6f74206d61746360008301527f68000000000000000000000000000000000000000000000000000000000000006020830152604082019050919050565b61097881610ca5565b82525050565b61098781610caf565b82525050565b600061099982846107d8565b915081905092915050565b60006109b082846107a7565b915081905092915050565b60006109c782866107a7565b91506109d38285610731565b6014820191506109e3828461070b565b601482019150819050949350505050565b60006109ff82610809565b9150610a0b8285610757565b602082019150610a1b8284610757565b6020820191508190509392505050565b6000606082019050610a406000830186610722565b610a4d60208301856106fc565b8181036040830152610a5f818461076e565b9050949350505050565b6000608082019050610a7e6000830187610748565b610a8b602083018661096f565b610a986040830185610722565b610aa56060830184610748565b95945050505050565b6000608082019050610ac36000830187610748565b610ad0602083018661097e565b610add6040830185610748565b610aea6060830184610748565b95945050505050565b60006020820190508181036000830152610b0d818461076e565b905092915050565b60006020820190508181036000830152610b2e81610849565b9050919050565b60006020820190508181036000830152610b4e81610889565b9050919050565b60006020820190508181036000830152610b6e816108c9565b9050919050565b60006020820190508181036000830152610b8e81610909565b9050919050565b6000602082019050610baa600083018461096f565b92915050565b6000604051905081810181811067ffffffffffffffff82111715610bd357600080fd5b8060405250919050565b600067ffffffffffffffff821115610bf457600080fd5b601f19601f8301169050602081019050919050565b600081519050919050565b600081519050919050565b600082825260208201905092915050565b600081905092915050565b600082825260208201905092915050565b600081905092915050565b6000610c6282610c85565b9050919050565b6000610c7482610c85565b9050919050565b6000819050919050565b600073ffffffffffffffffffffffffffffffffffffffff82169050919050565b6000819050919050565b600060ff82169050919050565b82818337600083830152505050565b60005b83811015610ce9578082015181840152602081019050610cce565b83811115610cf8576000848401525b50505050565b6000610d0982610d2c565b9050919050565b6000610d1b82610d2c565b9050919050565b6000819050919050565b6000610d3782610d4f565b9050919050565b6000601f19601f8301169050919050565b60008160601b9050919050565b610d6581610c57565b8114610d7057600080fd5b50565b610d7c81610c7b565b8114610d8757600080fd5b50565b610d9381610caf565b8114610d9e57600080fd5b5056fe4d6574615472616e73616374696f6e2875696e74323536206e6f6e63652c616464726573732066726f6d2c62797465732066756e6374696f6e5369676e617475726529a365627a7a7231582090f5d7d2f3ba155529ef885f82d76925c75fdc73a8c71c1f48fc0deafb5a40546c6578706572696d656e74616cf564736f6c634300050d0040454950373132446f6d61696e28737472696e67206e616d652c737472696e672076657273696f6e2c75696e743235362073616c742c6164647265737320766572696679696e67436f6e747261637429",
  "source": "pragma solidity ^0.5.13;\npragma experimental ABIEncoderV2;\n\nimport \"./lib/EIP712Base.sol\";\nimport \"./lib/SafeMath.sol\";\n\ncontract EIP712MetaTransaction is EIP712Base {\n    using SafeMath for uint256;\n    bytes32 private constant META_TRANSACTION_TYPEHASH = keccak256(bytes(\"MetaTransaction(uint256 nonce,address from,bytes functionSignature)\"));\n\n    event MetaTransactionExecuted(address userAddress, address payable relayerAddress, bytes functionSignature);\n    mapping(address => uint256) nonces;\n\n    /*\n     * Meta transaction structure.\n     * No point of including value field here as if user is doing value transfer then he has the funds to pay for gas\n     * He should call the desired function directly in that case.\n     */\n    struct MetaTransaction {\n\t\tuint256 nonce;\n\t\taddress from;\n        bytes functionSignature;\n\t}\n\n    constructor(string memory name, string memory version) public EIP712Base(name, version) {}\n\n    function executeMetaTransaction(address userAddress,\n        bytes memory functionSignature, bytes32 sigR, bytes32 sigS, uint8 sigV) public payable returns(bytes memory) {\n\n        MetaTransaction memory metaTx = MetaTransaction({\n            nonce: nonces[userAddress],\n            from: userAddress,\n            functionSignature: functionSignature\n        });\n        require(verify(userAddress, metaTx, sigR, sigS, sigV), \"Signer and signature do not match\");\n\tnonces[userAddress] = nonces[userAddress].add(1);\n        // Append userAddress at the end to extract it from calling context\n        (bool success, bytes memory returnData) = address(this).call(abi.encodePacked(functionSignature, userAddress, msg.sender));\n\n        require(success, \"Function call not successfull\");\n        emit MetaTransactionExecuted(userAddress, msg.sender, functionSignature);\n        return returnData;\n    }\n\n    function hashMetaTransaction(MetaTransaction memory metaTx) internal view returns (bytes32) {\n\t\treturn keccak256(abi.encode(\n            META_TRANSACTION_TYPEHASH,\n            metaTx.nonce,\n            metaTx.from,\n            keccak256(metaTx.functionSignature)\n        ));\n\t}\n\n    function getNonce(address user) public view returns(uint256 nonce) {\n        nonce = nonces[user];\n    }\n\n    function verify(address user, MetaTransaction memory metaTx, bytes32 sigR, bytes32 sigS, uint8 sigV) internal view returns (bool) {\n        address signer = ecrecover(toTypedMessageHash(hashMetaTransaction(metaTx)), sigV, sigR, sigS);\n        require(signer != address(0), \"Invalid signature\");\n\treturn signer == user;\n    }\n\n    function msgSender() internal view returns(address sender) {\n        if(msg.sender == address(this)) {\n            bytes20 userAddress;\n            bytes memory data = msg.data;\n            uint256 dataLength = msg.data.length;\n            assembly {\n                calldatacopy(0x0, sub(dataLength, 40), sub(dataLength, 20))\n                userAddress := mload(0x0)\n            }\n            sender = address(uint160(userAddress));\n        } else {\n            sender = msg.sender;\n        }\n    }\n\n    function msgRelayer() internal view returns(address relayer) {\n        if(msg.sender == address(this)) {\n            bytes20 relayerAddress;\n            bytes memory data = msg.data;\n            uint256 dataLength = msg.data.length;\n            assembly {\n                calldatacopy(0x0, sub(dataLength, 20), dataLength)\n                relayerAddress := mload(0x0)\n            }\n            relayer = address(uint160(relayerAddress));\n        }\n    }\n}\n",
  "sourcePath": "/Users/sachintomar/github/metatx-standard/src/contracts/EIP712MetaTransaction.sol",
  "compiler": {
    "name": "solc",
    "version": "0.5.13+commit.5b0b510c.Emscripten.clang"
  },
  "schemaVersion": "3.3.3",
  "updatedAt": "2021-02-20T09:51:13.382Z",
  "devdoc": {
    "methods": {}
  },
  "userdoc": {
    "methods": {}
  }
}