{
  "contractName": "EIP712Sig",
  "abi": [
    {
      "inputs": [
        {
          "internalType": "address",
          "name": "verifier",
          "type": "address"
        }
      ],
      "stateMutability": "nonpayable",
      "type": "constructor"
    },
    {
      "inputs": [],
      "name": "CALLDATA_TYPEHASH",
      "outputs": [
        {
          "internalType": "bytes32",
          "name": "",
          "type": "bytes32"
        }
      ],
      "stateMutability": "view",
      "type": "function"
    },
    {
      "inputs": [],
      "name": "DOMAIN_SEPARATOR",
      "outputs": [
        {
          "internalType": "bytes32",
          "name": "",
          "type": "bytes32"
        }
      ],
      "stateMutability": "view",
      "type": "function"
    },
    {
      "inputs": [],
      "name": "EIP712DOMAIN_TYPEHASH",
      "outputs": [
        {
          "internalType": "bytes32",
          "name": "",
          "type": "bytes32"
        }
      ],
      "stateMutability": "view",
      "type": "function"
    },
    {
      "inputs": [],
      "name": "RELAYDATA_TYPEHASH",
      "outputs": [
        {
          "internalType": "bytes32",
          "name": "",
          "type": "bytes32"
        }
      ],
      "stateMutability": "view",
      "type": "function"
    },
    {
      "inputs": [],
      "name": "RELAY_REQUEST_TYPEHASH",
      "outputs": [
        {
          "internalType": "bytes32",
          "name": "",
          "type": "bytes32"
        }
      ],
      "stateMutability": "view",
      "type": "function"
    },
    {
      "inputs": [
        {
          "components": [
            {
              "internalType": "address",
              "name": "target",
              "type": "address"
            },
            {
              "internalType": "bytes",
              "name": "encodedFunction",
              "type": "bytes"
            },
            {
              "components": [
                {
                  "internalType": "uint256",
                  "name": "gasLimit",
                  "type": "uint256"
                },
                {
                  "internalType": "uint256",
                  "name": "gasPrice",
                  "type": "uint256"
                },
                {
                  "internalType": "uint256",
                  "name": "pctRelayFee",
                  "type": "uint256"
                },
                {
                  "internalType": "uint256",
                  "name": "baseRelayFee",
                  "type": "uint256"
                }
              ],
              "internalType": "struct GSNTypes.GasData",
              "name": "gasData",
              "type": "tuple"
            },
            {
              "components": [
                {
                  "internalType": "address",
                  "name": "senderAddress",
                  "type": "address"
                },
                {
                  "internalType": "uint256",
                  "name": "senderNonce",
                  "type": "uint256"
                },
                {
                  "internalType": "address",
                  "name": "relayWorker",
                  "type": "address"
                },
                {
                  "internalType": "address",
                  "name": "paymaster",
                  "type": "address"
                },
                {
                  "internalType": "address",
                  "name": "forwarder",
                  "type": "address"
                }
              ],
              "internalType": "struct GSNTypes.RelayData",
              "name": "relayData",
              "type": "tuple"
            }
          ],
          "internalType": "struct GSNTypes.RelayRequest",
          "name": "req",
          "type": "tuple"
        },
        {
          "internalType": "bytes",
          "name": "signature",
          "type": "bytes"
        }
      ],
      "name": "verify",
      "outputs": [
        {
          "internalType": "bool",
          "name": "",
          "type": "bool"
        }
      ],
      "stateMutability": "view",
      "type": "function"
    }
  ],
  "bytecode": "0x60806040523480156200001157600080fd5b50604051620014f3380380620014f383398181016040526200003791908101906200016d565b620000e260405180606001604052806040518060400160405280601781526020017f47534e2052656c61796564205472616e73616374696f6e00000000000000000081525081526020016040518060400160405280600181526020017f310000000000000000000000000000000000000000000000000000000000000081525081526020018373ffffffffffffffffffffffffffffffffffffffff16815250620000ef60201b60201c565b6000819055505062000310565b6000604051620000ff9062000249565b6040518091039020826000015180519060200120836020015180519060200120846040015160405160200162000139949392919062000260565b604051602081830303815290604052805190602001209050919050565b6000815190506200016781620002f6565b92915050565b6000602082840312156200018057600080fd5b6000620001908482850162000156565b91505092915050565b620001a481620002b8565b82525050565b620001b581620002cc565b82525050565b6000620001ca604283620002ad565b91507f454950373132446f6d61696e28737472696e67206e616d652c737472696e672060008301527f76657273696f6e2c6164647265737320766572696679696e67436f6e7472616360208301527f74290000000000000000000000000000000000000000000000000000000000006040830152604282019050919050565b60006200025682620001bb565b9150819050919050565b6000608082019050620002776000830187620001aa565b620002866020830186620001aa565b620002956040830185620001aa565b620002a4606083018462000199565b95945050505050565b600081905092915050565b6000620002c582620002d6565b9050919050565b6000819050919050565b600073ffffffffffffffffffffffffffffffffffffffff82169050919050565b6200030181620002b8565b81146200030d57600080fd5b50565b6111d380620003206000396000f3fe608060405234801561001057600080fd5b50600436106100625760003560e01c80633644e515146100675780633fb37abf14610085578063abf0d3f4146100a3578063c49f91d3146100c1578063cc0c62b2146100df578063f2ec77da146100fd575b600080fd5b61006f61012d565b60405161007c9190610e26565b60405180910390f35b61008d610133565b60405161009a9190610e26565b60405180910390f35b6100ab61014a565b6040516100b89190610e26565b60405180910390f35b6100c9610161565b6040516100d69190610e26565b60405180910390f35b6100e7610178565b6040516100f49190610e26565b60405180910390f35b610117600480360361011291908101906107a1565b61018f565b6040516101249190610e0b565b60405180910390f35b60005481565b60405161013f90610df6565b604051809103902081565b60405161015690610de1565b604051809103902081565b60405161016d90610dcc565b604051809103902081565b60405161018490610db7565b604051809103902081565b60008060005461019e85610219565b6040516020016101af929190610d80565b60405160208183030381529060405280519060200120905083606001516000015173ffffffffffffffffffffffffffffffffffffffff166101f9848361029990919063ffffffff16565b73ffffffffffffffffffffffffffffffffffffffff161491505092915050565b600060405161022790610de1565b6040518091039020826000015183602001516040516102469190610d69565b604051809103902061025b856040015161048a565b61026886606001516104e5565b60405160200161027c959493929190610e41565b604051602081830303815290604052805190602001209050919050565b600060418251146102df576040517f08c379a00000000000000000000000000000000000000000000000000000000081526004016102d690610fad565b60405180910390fd5b60008060006020850151925060408501519150606085015160001a90507f7fffffffffffffffffffffffffffffff5d576e7357a4501ddfe92f46681b20a08260001c1115610362576040517f08c379a000000000000000000000000000000000000000000000000000000000815260040161035990610fcd565b60405180910390fd5b601b8160ff161415801561037a5750601c8160ff1614155b156103ba576040517f08c379a00000000000000000000000000000000000000000000000000000000081526004016103b190610fed565b60405180910390fd5b6000600187838686604051600081526020016040526040516103df9493929190610f48565b6020604051602081039080840390855afa158015610401573d6000803e3d6000fd5b505050602060405103519050600073ffffffffffffffffffffffffffffffffffffffff168173ffffffffffffffffffffffffffffffffffffffff16141561047d576040517f08c379a000000000000000000000000000000000000000000000000000000000815260040161047490610f8d565b60405180910390fd5b8094505050505092915050565b600060405161049890610df6565b604051809103902082600001518360200151846040015185606001516040516020016104c8959493929190610ef5565b604051602081830303815290604052805190602001209050919050565b60006040516104f390610db7565b60405180910390208260000151836020015184604001518560600151866080015160405160200161052996959493929190610e94565b604051602081830303815290604052805190602001209050919050565b6000813590506105558161116f565b92915050565b600082601f83011261056c57600080fd5b813561057f61057a8261103a565b61100d565b9150808252602083016020830185838301111561059b57600080fd5b6105a6838284611123565b50505092915050565b600082601f8301126105c057600080fd5b81356105d36105ce82611066565b61100d565b915080825260208301602083018583830111156105ef57600080fd5b6105fa838284611123565b50505092915050565b60006080828403121561061557600080fd5b61061f608061100d565b9050600061062f8482850161078c565b60008301525060206106438482850161078c565b60208301525060406106578482850161078c565b604083015250606061066b8482850161078c565b60608301525092915050565b600060a0828403121561068957600080fd5b61069360a061100d565b905060006106a384828501610546565b60008301525060206106b78482850161078c565b60208301525060406106cb84828501610546565b60408301525060606106df84828501610546565b60608301525060806106f384828501610546565b60808301525092915050565b6000610160828403121561071257600080fd5b61071c608061100d565b9050600061072c84828501610546565b600083015250602082013567ffffffffffffffff81111561074c57600080fd5b6107588482850161055b565b602083015250604061076c84828501610603565b60408301525060c061078084828501610677565b60608301525092915050565b60008135905061079b81611186565b92915050565b600080604083850312156107b457600080fd5b600083013567ffffffffffffffff8111156107ce57600080fd5b6107da858286016106ff565b925050602083013567ffffffffffffffff8111156107f757600080fd5b610803858286016105af565b9150509250929050565b610816816110c4565b82525050565b610825816110d6565b82525050565b610834816110e2565b82525050565b61084b610846826110e2565b611165565b82525050565b600061085c82611092565b610866818561109d565b9350610876818560208601611132565b80840191505092915050565b600061088f6018836110a8565b91507f45434453413a20696e76616c6964207369676e617475726500000000000000006000830152602082019050919050565b60006108cf601f836110a8565b91507f45434453413a20696e76616c6964207369676e6174757265206c656e677468006000830152602082019050919050565b600061090f6002836110b9565b91507f19010000000000000000000000000000000000000000000000000000000000006000830152600282019050919050565b600061094f6022836110a8565b91507f45434453413a20696e76616c6964207369676e6174757265202773272076616c60008301527f75650000000000000000000000000000000000000000000000000000000000006020830152604082019050919050565b60006109b56022836110a8565b91507f45434453413a20696e76616c6964207369676e6174757265202776272076616c60008301527f75650000000000000000000000000000000000000000000000000000000000006020830152604082019050919050565b6000610a1b606c836110b9565b91507f52656c61794461746128616464726573732073656e646572416464726573732c60008301527f75696e743235362073656e6465724e6f6e63652c616464726573732072656c6160208301527f79576f726b65722c61646472657373207061796d61737465722c61646472657360408301527f7320666f727761726465722900000000000000000000000000000000000000006060830152606c82019050919050565b6000610acd6042836110b9565b91507f454950373132446f6d61696e28737472696e67206e616d652c737472696e672060008301527f76657273696f6e2c6164647265737320766572696679696e67436f6e7472616360208301527f74290000000000000000000000000000000000000000000000000000000000006040830152604282019050919050565b6000610b5a610115836110b9565b91507f52656c6179526571756573742861646472657373207461726765742c6279746560008301527f7320656e636f64656446756e6374696f6e2c476173446174612067617344617460208301527f612c52656c6179446174612072656c617944617461294761734461746128756960408301527f6e74323536206761734c696d69742c75696e743235362067617350726963652c60608301527f75696e743235362070637452656c61794665652c75696e74323536206261736560808301527f52656c61794665652952656c61794461746128616464726573732073656e646560a08301527f72416464726573732c75696e743235362073656e6465724e6f6e63652c61646460c08301527f726573732072656c6179576f726b65722c61646472657373207061796d61737460e08301527f65722c6164647265737320666f7277617264657229000000000000000000000061010083015261011582019050919050565b6000610ccc6053836110b9565b91507f476173446174612875696e74323536206761734c696d69742c75696e7432353660008301527f2067617350726963652c75696e743235362070637452656c61794665652c756960208301527f6e74323536206261736552656c617946656529000000000000000000000000006040830152605382019050919050565b610d548161110c565b82525050565b610d6381611116565b82525050565b6000610d758284610851565b915081905092915050565b6000610d8b82610902565b9150610d97828561083a565b602082019150610da7828461083a565b6020820191508190509392505050565b6000610dc282610a0e565b9150819050919050565b6000610dd782610ac0565b9150819050919050565b6000610dec82610b4c565b9150819050919050565b6000610e0182610cbf565b9150819050919050565b6000602082019050610e20600083018461081c565b92915050565b6000602082019050610e3b600083018461082b565b92915050565b600060a082019050610e56600083018861082b565b610e63602083018761080d565b610e70604083018661082b565b610e7d606083018561082b565b610e8a608083018461082b565b9695505050505050565b600060c082019050610ea9600083018961082b565b610eb6602083018861080d565b610ec36040830187610d4b565b610ed0606083018661080d565b610edd608083018561080d565b610eea60a083018461080d565b979650505050505050565b600060a082019050610f0a600083018861082b565b610f176020830187610d4b565b610f246040830186610d4b565b610f316060830185610d4b565b610f3e6080830184610d4b565b9695505050505050565b6000608082019050610f5d600083018761082b565b610f6a6020830186610d5a565b610f77604083018561082b565b610f84606083018461082b565b95945050505050565b60006020820190508181036000830152610fa681610882565b9050919050565b60006020820190508181036000830152610fc6816108c2565b9050919050565b60006020820190508181036000830152610fe681610942565b9050919050565b60006020820190508181036000830152611006816109a8565b9050919050565b6000604051905081810181811067ffffffffffffffff8211171561103057600080fd5b8060405250919050565b600067ffffffffffffffff82111561105157600080fd5b601f19601f8301169050602081019050919050565b600067ffffffffffffffff82111561107d57600080fd5b601f19601f8301169050602081019050919050565b600081519050919050565b600081905092915050565b600082825260208201905092915050565b600081905092915050565b60006110cf826110ec565b9050919050565b60008115159050919050565b6000819050919050565b600073ffffffffffffffffffffffffffffffffffffffff82169050919050565b6000819050919050565b600060ff82169050919050565b82818337600083830152505050565b60005b83811015611150578082015181840152602081019050611135565b8381111561115f576000848401525b50505050565b6000819050919050565b611178816110c4565b811461118357600080fd5b50565b61118f8161110c565b811461119a57600080fd5b5056fea26469706673582212204295e836aefc3ca0979d066c8097f6dcd673796c2292b914c231679f71c1198d64736f6c63430006020033",
  "source": "// SPDX-License-Identifier:MIT\npragma solidity ^0.6.2;\npragma experimental ABIEncoderV2;\n\nimport \"@openzeppelin/contracts/cryptography/ECDSA.sol\";\nimport \"./GSNTypes.sol\";\n\n// https://github.com/ethereum/EIPs/blob/master/assets/eip-712/Example.sol\ncontract EIP712Sig {\n\n    using ECDSA for bytes32;\n\n    struct EIP712Domain {\n        string name;\n        string version;\n//        uint256 chainId;\n        address verifyingContract;\n    }\n\n    bytes32 public constant EIP712DOMAIN_TYPEHASH = keccak256(\n        \"EIP712Domain(string name,string version,address verifyingContract)\"\n    );\n\n    // solhint-disable-next-line max-line-length\n    bytes32 public constant RELAY_REQUEST_TYPEHASH = keccak256(\"RelayRequest(address target,bytes encodedFunction,GasData gasData,RelayData relayData)GasData(uint256 gasLimit,uint256 gasPrice,uint256 pctRelayFee,uint256 baseRelayFee)RelayData(address senderAddress,uint256 senderNonce,address relayWorker,address paymaster,address forwarder)\");\n\n    // solhint-disable-next-line max-line-length\n    bytes32 public constant CALLDATA_TYPEHASH = keccak256(\"GasData(uint256 gasLimit,uint256 gasPrice,uint256 pctRelayFee,uint256 baseRelayFee)\");\n\n    // solhint-disable-next-line max-line-length\n    bytes32 public constant RELAYDATA_TYPEHASH = keccak256(\"RelayData(address senderAddress,uint256 senderNonce,address relayWorker,address paymaster,address forwarder)\");\n\n    // solhint-disable-next-line var-name-mixedcase\n    bytes32 public DOMAIN_SEPARATOR; //not constant - based on chainId\n\n    constructor (address verifier) public {\n        DOMAIN_SEPARATOR = hash(EIP712Domain({\n            name : \"GSN Relayed Transaction\",\n            version : \"1\",\n//            chainId : getChainID(),\n            verifyingContract : verifier\n        }));\n    }\n\n    function hash(EIP712Domain memory eip712Domain) internal pure returns (bytes32) {\n        return keccak256(abi.encode(\n                EIP712DOMAIN_TYPEHASH,\n                keccak256(bytes(eip712Domain.name)),\n                keccak256(bytes(eip712Domain.version)),\n//                eip712Domain.chainId,\n                eip712Domain.verifyingContract\n            ));\n    }\n\n    function hash(GSNTypes.RelayRequest memory req) internal pure returns (bytes32) {\n        return keccak256(abi.encode(\n                RELAY_REQUEST_TYPEHASH,\n                    req.target,\n                    keccak256(req.encodedFunction),\n                    hash(req.gasData),\n                    hash(req.relayData)\n            ));\n    }\n\n    function hash(GSNTypes.GasData memory req) internal pure returns (bytes32) {\n        return keccak256(abi.encode(\n                CALLDATA_TYPEHASH,\n                req.gasLimit,\n                req.gasPrice,\n                req.pctRelayFee,\n                req.baseRelayFee\n            ));\n    }\n\n    function hash(GSNTypes.RelayData memory req) internal pure returns (bytes32) {\n        return keccak256(abi.encode(\n                RELAYDATA_TYPEHASH,\n                req.senderAddress,\n                req.senderNonce,\n                req.relayWorker,\n                req.paymaster,\n                req.forwarder\n            ));\n    }\n\n    function verify(GSNTypes.RelayRequest memory req, bytes memory signature) public view returns (bool) {\n        bytes32 digest = keccak256(abi.encodePacked(\n                \"\\x19\\x01\", DOMAIN_SEPARATOR,\n                hash(req)\n            ));\n        return digest.recover(signature) == req.relayData.senderAddress;\n    }\n\n    function getChainID() internal pure returns (uint256) {\n//        uint256 id;\n//        assembly {\n//            id := chainid()\n//        }\n        return 7;\n    }\n}\n",
  "sourcePath": "@opengsn/gsn/contracts/utils/EIP712Sig.sol",
  "compiler": {
    "name": "solc",
    "version": "0.6.2+commit.bacdbe57.Emscripten.clang"
  },
  "schemaVersion": "3.1.0",
  "updatedAt": "2020-06-02T19:55:00.453Z",
  "devdoc": {
    "methods": {}
  },
  "userdoc": {
    "methods": {}
  }
}