{
  "contractName": "NaivePaymaster",
  "abi": [
    {
      "inputs": [
        {
          "internalType": "string",
          "name": "_paymasterVersion",
          "type": "string"
        }
      ],
      "stateMutability": "nonpayable",
      "type": "constructor"
    },
    {
      "anonymous": false,
      "inputs": [
        {
          "indexed": true,
          "internalType": "address",
          "name": "previousOwner",
          "type": "address"
        },
        {
          "indexed": true,
          "internalType": "address",
          "name": "newOwner",
          "type": "address"
        }
      ],
      "name": "OwnershipTransferred",
      "type": "event"
    },
    {
      "anonymous": false,
      "inputs": [
        {
          "indexed": false,
          "internalType": "uint256",
          "name": "",
          "type": "uint256"
        }
      ],
      "name": "PostRelayed",
      "type": "event"
    },
    {
      "anonymous": false,
      "inputs": [
        {
          "indexed": false,
          "internalType": "uint256",
          "name": "",
          "type": "uint256"
        }
      ],
      "name": "PreRelayed",
      "type": "event"
    },
    {
      "anonymous": false,
      "inputs": [
        {
          "indexed": false,
          "internalType": "address",
          "name": "target",
          "type": "address"
        }
      ],
      "name": "TargetSet",
      "type": "event"
    },
    {
      "inputs": [],
      "name": "getGasLimits",
      "outputs": [
        {
          "components": [
            {
              "internalType": "uint256",
              "name": "acceptRelayedCallGasLimit",
              "type": "uint256"
            },
            {
              "internalType": "uint256",
              "name": "preRelayedCallGasLimit",
              "type": "uint256"
            },
            {
              "internalType": "uint256",
              "name": "postRelayedCallGasLimit",
              "type": "uint256"
            }
          ],
          "internalType": "struct GSNTypes.GasLimits",
          "name": "limits",
          "type": "tuple"
        }
      ],
      "stateMutability": "view",
      "type": "function"
    },
    {
      "inputs": [],
      "name": "getHubAddr",
      "outputs": [
        {
          "internalType": "address",
          "name": "",
          "type": "address"
        }
      ],
      "stateMutability": "view",
      "type": "function"
    },
    {
      "inputs": [],
      "name": "getRelayHubDeposit",
      "outputs": [
        {
          "internalType": "uint256",
          "name": "",
          "type": "uint256"
        }
      ],
      "stateMutability": "view",
      "type": "function"
    },
    {
      "inputs": [],
      "name": "ourTarget",
      "outputs": [
        {
          "internalType": "address",
          "name": "",
          "type": "address"
        }
      ],
      "stateMutability": "view",
      "type": "function"
    },
    {
      "inputs": [],
      "name": "owner",
      "outputs": [
        {
          "internalType": "address",
          "name": "",
          "type": "address"
        }
      ],
      "stateMutability": "view",
      "type": "function"
    },
    {
      "inputs": [],
      "name": "renounceOwnership",
      "outputs": [],
      "stateMutability": "nonpayable",
      "type": "function"
    },
    {
      "inputs": [
        {
          "internalType": "contract IRelayHub",
          "name": "hub",
          "type": "address"
        }
      ],
      "name": "setRelayHub",
      "outputs": [],
      "stateMutability": "nonpayable",
      "type": "function"
    },
    {
      "inputs": [
        {
          "internalType": "address",
          "name": "newOwner",
          "type": "address"
        }
      ],
      "name": "transferOwnership",
      "outputs": [],
      "stateMutability": "nonpayable",
      "type": "function"
    },
    {
      "inputs": [
        {
          "internalType": "uint256",
          "name": "amount",
          "type": "uint256"
        },
        {
          "internalType": "address payable",
          "name": "target",
          "type": "address"
        }
      ],
      "name": "withdrawRelayHubDepositTo",
      "outputs": [],
      "stateMutability": "nonpayable",
      "type": "function"
    },
    {
      "stateMutability": "payable",
      "type": "receive"
    },
    {
      "inputs": [
        {
          "internalType": "address",
          "name": "target",
          "type": "address"
        }
      ],
      "name": "setTarget",
      "outputs": [],
      "stateMutability": "nonpayable",
      "type": "function"
    },
    {
      "inputs": [
        {
          "components": [
            {
              "internalType": "address",
              "name": "target",
              "type": "address"
            },
            {
              "internalType": "bytes",
              "name": "encodedFunction",
              "type": "bytes"
            },
            {
              "components": [
                {
                  "internalType": "uint256",
                  "name": "gasLimit",
                  "type": "uint256"
                },
                {
                  "internalType": "uint256",
                  "name": "gasPrice",
                  "type": "uint256"
                },
                {
                  "internalType": "uint256",
                  "name": "pctRelayFee",
                  "type": "uint256"
                },
                {
                  "internalType": "uint256",
                  "name": "baseRelayFee",
                  "type": "uint256"
                }
              ],
              "internalType": "struct GSNTypes.GasData",
              "name": "gasData",
              "type": "tuple"
            },
            {
              "components": [
                {
                  "internalType": "address",
                  "name": "senderAddress",
                  "type": "address"
                },
                {
                  "internalType": "uint256",
                  "name": "senderNonce",
                  "type": "uint256"
                },
                {
                  "internalType": "address",
                  "name": "relayWorker",
                  "type": "address"
                },
                {
                  "internalType": "address",
                  "name": "paymaster",
                  "type": "address"
                },
                {
                  "internalType": "address",
                  "name": "forwarder",
                  "type": "address"
                }
              ],
              "internalType": "struct GSNTypes.RelayData",
              "name": "relayData",
              "type": "tuple"
            }
          ],
          "internalType": "struct GSNTypes.RelayRequest",
          "name": "relayRequest",
          "type": "tuple"
        },
        {
          "internalType": "bytes",
          "name": "signature",
          "type": "bytes"
        },
        {
          "internalType": "bytes",
          "name": "approvalData",
          "type": "bytes"
        },
        {
          "internalType": "uint256",
          "name": "maxPossibleGas",
          "type": "uint256"
        }
      ],
      "name": "acceptRelayedCall",
      "outputs": [
        {
          "internalType": "bytes",
          "name": "context",
          "type": "bytes"
        }
      ],
      "stateMutability": "view",
      "type": "function"
    },
    {
      "inputs": [
        {
          "internalType": "bytes",
          "name": "context",
          "type": "bytes"
        }
      ],
      "name": "preRelayedCall",
      "outputs": [
        {
          "internalType": "bytes32",
          "name": "",
          "type": "bytes32"
        }
      ],
      "stateMutability": "nonpayable",
      "type": "function"
    },
    {
      "inputs": [
        {
          "internalType": "bytes",
          "name": "context",
          "type": "bytes"
        },
        {
          "internalType": "bool",
          "name": "success",
          "type": "bool"
        },
        {
          "internalType": "bytes32",
          "name": "preRetVal",
          "type": "bytes32"
        },
        {
          "internalType": "uint256",
          "name": "gasUse",
          "type": "uint256"
        },
        {
          "components": [
            {
              "internalType": "uint256",
              "name": "gasLimit",
              "type": "uint256"
            },
            {
              "internalType": "uint256",
              "name": "gasPrice",
              "type": "uint256"
            },
            {
              "internalType": "uint256",
              "name": "pctRelayFee",
              "type": "uint256"
            },
            {
              "internalType": "uint256",
              "name": "baseRelayFee",
              "type": "uint256"
            }
          ],
          "internalType": "struct GSNTypes.GasData",
          "name": "gasData",
          "type": "tuple"
        }
      ],
      "name": "postRelayedCall",
      "outputs": [],
      "stateMutability": "nonpayable",
      "type": "function"
    },
    {
      "inputs": [],
      "name": "versionPaymaster",
      "outputs": [
        {
          "internalType": "string",
          "name": "",
          "type": "string"
        }
      ],
      "stateMutability": "view",
      "type": "function"
    }
  ],
  "bytecode": "0x60806040523480156200001157600080fd5b5060405162001bae38038062001bae83398181016040526200003791908101906200021a565b6000620000496200010760201b60201c565b9050806000806101000a81548173ffffffffffffffffffffffffffffffffffffffff021916908373ffffffffffffffffffffffffffffffffffffffff1602179055508073ffffffffffffffffffffffffffffffffffffffff16600073ffffffffffffffffffffffffffffffffffffffff167f8be0079c531659141344cd1fd0a4f28419497f9722a3daafe3b4186f6b6457e060405160405180910390a3508060039080519060200190620000ff9291906200010f565b5050620002f0565b600033905090565b828054600181600116156101000203166002900490600052602060002090601f016020900481019282601f106200015257805160ff191683800117855562000183565b8280016001018555821562000183579182015b828111156200018257825182559160200191906001019062000165565b5b50905062000192919062000196565b5090565b620001bb91905b80821115620001b75760008160009055506001016200019d565b5090565b90565b600082601f830112620001d057600080fd5b8151620001e7620001e1826200028d565b6200025f565b915080825260208301602083018583830111156200020457600080fd5b62000211838284620002ba565b50505092915050565b6000602082840312156200022d57600080fd5b600082015167ffffffffffffffff8111156200024857600080fd5b6200025684828501620001be565b91505092915050565b6000604051905081810181811067ffffffffffffffff821117156200028357600080fd5b8060405250919050565b600067ffffffffffffffff821115620002a557600080fd5b601f19601f8301169050602081019050919050565b60005b83811015620002da578082015181840152602081019050620002bd565b83811115620002ea576000848401525b50505050565b6118ae80620003006000396000f3fe6080604052600436106100e15760003560e01c80637bb052641161007f5780638da5cb5b116100595780638da5cb5b146103c5578063921276ea146103f0578063f2fde38b1461041b578063fbfbd0f21461044457610208565b80637bb052641461033457806380274db71461035d57806380d324f11461039a57610208565b80635ea54eee116100bb5780635ea54eee1461029e578063715018a6146102c957806374e861d6146102e0578063776d1a011461030b57610208565b80632afe31c11461020d5780632d14c4b71461023857806350c74d3a1461026157610208565b3661020857600073ffffffffffffffffffffffffffffffffffffffff16600160009054906101000a900473ffffffffffffffffffffffffffffffffffffffff1673ffffffffffffffffffffffffffffffffffffffff161415610178576040517f08c379a000000000000000000000000000000000000000000000000000000000815260040161016f90611607565b60405180910390fd5b600160009054906101000a900473ffffffffffffffffffffffffffffffffffffffff1673ffffffffffffffffffffffffffffffffffffffff1663aa67c91934306040518363ffffffff1660e01b81526004016101d4919061154d565b6000604051808303818588803b1580156101ed57600080fd5b505af1158015610201573d6000803e3d6000fd5b5050505050005b600080fd5b34801561021957600080fd5b5061022261046d565b60405161022f9190611682565b60405180910390f35b34801561024457600080fd5b5061025f600480360361025a919081019061125c565b61051f565b005b34801561026d57600080fd5b5061028860048036036102839190810190611157565b610647565b6040516102959190611583565b60405180910390f35b3480156102aa57600080fd5b506102b3610717565b6040516102c09190611667565b60405180910390f35b3480156102d557600080fd5b506102de610747565b005b3480156102ec57600080fd5b506102f561089c565b6040516103029190611532565b60405180910390f35b34801561031757600080fd5b50610332600480360361032d919081019061102d565b6108c6565b005b34801561034057600080fd5b5061035b6004803603610356919081019061112e565b6109d7565b005b34801561036957600080fd5b50610384600480360361037f9190810190611056565b610ab1565b6040516103919190611568565b60405180910390f35b3480156103a657600080fd5b506103af610b79565b6040516103bc9190611532565b60405180910390f35b3480156103d157600080fd5b506103da610b9f565b6040516103e79190611532565b60405180910390f35b3480156103fc57600080fd5b50610405610bc8565b60405161041291906115a5565b60405180910390f35b34801561042757600080fd5b50610442600480360361043d919081019061102d565b610c6a565b005b34801561045057600080fd5b5061046b6004803603610466919081019061109b565b610e2e565b005b6000600160009054906101000a900473ffffffffffffffffffffffffffffffffffffffff1673ffffffffffffffffffffffffffffffffffffffff166370a08231306040518263ffffffff1660e01b81526004016104ca919061154d565b60206040518083038186803b1580156104e257600080fd5b505afa1580156104f6573d6000803e3d6000fd5b505050506040513d601f19601f8201168201806040525061051a9190810190611233565b905090565b610527610ef0565b73ffffffffffffffffffffffffffffffffffffffff166000809054906101000a900473ffffffffffffffffffffffffffffffffffffffff1673ffffffffffffffffffffffffffffffffffffffff16146105b5576040517f08c379a00000000000000000000000000000000000000000000000000000000081526004016105ac90611647565b60405180910390fd5b600160009054906101000a900473ffffffffffffffffffffffffffffffffffffffff1673ffffffffffffffffffffffffffffffffffffffff1662f714ce83836040518363ffffffff1660e01b815260040161061192919061169d565b600060405180830381600087803b15801561062b57600080fd5b505af115801561063f573d6000803e3d6000fd5b505050505050565b6060600260009054906101000a900473ffffffffffffffffffffffffffffffffffffffff1673ffffffffffffffffffffffffffffffffffffffff16876000016020610695919081019061102d565b73ffffffffffffffffffffffffffffffffffffffff16146106eb576040517f08c379a00000000000000000000000000000000000000000000000000000000081526004016106e2906115c7565b60405180910390fd5b436040516020016106fc9190611682565b60405160208183030381529060405290509695505050505050565b61071f610ef8565b604051806060016040528061c3508152602001620186a081526020016201adb0815250905090565b61074f610ef0565b73ffffffffffffffffffffffffffffffffffffffff166000809054906101000a900473ffffffffffffffffffffffffffffffffffffffff1673ffffffffffffffffffffffffffffffffffffffff16146107dd576040517f08c379a00000000000000000000000000000000000000000000000000000000081526004016107d490611647565b60405180910390fd5b600073ffffffffffffffffffffffffffffffffffffffff166000809054906101000a900473ffffffffffffffffffffffffffffffffffffffff1673ffffffffffffffffffffffffffffffffffffffff167f8be0079c531659141344cd1fd0a4f28419497f9722a3daafe3b4186f6b6457e060405160405180910390a360008060006101000a81548173ffffffffffffffffffffffffffffffffffffffff021916908373ffffffffffffffffffffffffffffffffffffffff160217905550565b6000600160009054906101000a900473ffffffffffffffffffffffffffffffffffffffff16905090565b6108ce610ef0565b73ffffffffffffffffffffffffffffffffffffffff166000809054906101000a900473ffffffffffffffffffffffffffffffffffffffff1673ffffffffffffffffffffffffffffffffffffffff161461095c576040517f08c379a000000000000000000000000000000000000000000000000000000000815260040161095390611647565b60405180910390fd5b80600260006101000a81548173ffffffffffffffffffffffffffffffffffffffff021916908373ffffffffffffffffffffffffffffffffffffffff1602179055507f3bfb4bbf112628248058745a3c57e35b13369386e474b8e56c552f3063a4a196816040516109cc9190611532565b60405180910390a150565b6109df610ef0565b73ffffffffffffffffffffffffffffffffffffffff166000809054906101000a900473ffffffffffffffffffffffffffffffffffffffff1673ffffffffffffffffffffffffffffffffffffffff1614610a6d576040517f08c379a0000000000000000000000000000000000000000000000000000000008152600401610a6490611647565b60405180910390fd5b80600160006101000a81548173ffffffffffffffffffffffffffffffffffffffff021916908373ffffffffffffffffffffffffffffffffffffffff16021790555050565b6000610abb61089c565b73ffffffffffffffffffffffffffffffffffffffff163373ffffffffffffffffffffffffffffffffffffffff1614610b28576040517f08c379a0000000000000000000000000000000000000000000000000000000008152600401610b1f90611627565b60405180910390fd5b7f1fab8d24eefec3578055fc7f1c7cce1b10153c6731e0b5ca8147e8916d884b458383610b58919081019061120a565b604051610b659190611682565b60405180910390a16000801b905092915050565b600260009054906101000a900473ffffffffffffffffffffffffffffffffffffffff1681565b60008060009054906101000a900473ffffffffffffffffffffffffffffffffffffffff16905090565b606060038054600181600116156101000203166002900480601f016020809104026020016040519081016040528092919081815260200182805460018160011615610100020316600290048015610c605780601f10610c3557610100808354040283529160200191610c60565b820191906000526020600020905b815481529060010190602001808311610c4357829003601f168201915b5050505050905090565b610c72610ef0565b73ffffffffffffffffffffffffffffffffffffffff166000809054906101000a900473ffffffffffffffffffffffffffffffffffffffff1673ffffffffffffffffffffffffffffffffffffffff1614610d00576040517f08c379a0000000000000000000000000000000000000000000000000000000008152600401610cf790611647565b60405180910390fd5b600073ffffffffffffffffffffffffffffffffffffffff168173ffffffffffffffffffffffffffffffffffffffff161415610d70576040517f08c379a0000000000000000000000000000000000000000000000000000000008152600401610d67906115e7565b60405180910390fd5b8073ffffffffffffffffffffffffffffffffffffffff166000809054906101000a900473ffffffffffffffffffffffffffffffffffffffff1673ffffffffffffffffffffffffffffffffffffffff167f8be0079c531659141344cd1fd0a4f28419497f9722a3daafe3b4186f6b6457e060405160405180910390a3806000806101000a81548173ffffffffffffffffffffffffffffffffffffffff021916908373ffffffffffffffffffffffffffffffffffffffff16021790555050565b610e3661089c565b73ffffffffffffffffffffffffffffffffffffffff163373ffffffffffffffffffffffffffffffffffffffff1614610ea3576040517f08c379a0000000000000000000000000000000000000000000000000000000008152600401610e9a90611627565b60405180910390fd5b7f142c6d2c03c5b3fcbb162bc0e230bbaae8c9032eb624a8fd44658e00efa63c908686610ed3919081019061120a565b604051610ee09190611682565b60405180910390a1505050505050565b600033905090565b60405180606001604052806000815260200160008152602001600081525090565b600081359050610f28816117ee565b92915050565b600081359050610f3d81611805565b92915050565b600081359050610f528161181c565b92915050565b600081359050610f6781611833565b92915050565b60008083601f840112610f7f57600080fd5b8235905067ffffffffffffffff811115610f9857600080fd5b602083019150836001820283011115610fb057600080fd5b9250929050565b600081359050610fc68161184a565b92915050565b600060808284031215610fde57600080fd5b81905092915050565b60006101608284031215610ffa57600080fd5b81905092915050565b60008135905061101281611861565b92915050565b60008151905061102781611861565b92915050565b60006020828403121561103f57600080fd5b600061104d84828501610f19565b91505092915050565b6000806020838503121561106957600080fd5b600083013567ffffffffffffffff81111561108357600080fd5b61108f85828601610f6d565b92509250509250929050565b60008060008060008061010087890312156110b557600080fd5b600087013567ffffffffffffffff8111156110cf57600080fd5b6110db89828a01610f6d565b965096505060206110ee89828a01610f43565b94505060406110ff89828a01610f58565b935050606061111089828a01611003565b925050608061112189828a01610fcc565b9150509295509295509295565b60006020828403121561114057600080fd5b600061114e84828501610fb7565b91505092915050565b6000806000806000806080878903121561117057600080fd5b600087013567ffffffffffffffff81111561118a57600080fd5b61119689828a01610fe7565b965050602087013567ffffffffffffffff8111156111b357600080fd5b6111bf89828a01610f6d565b9550955050604087013567ffffffffffffffff8111156111de57600080fd5b6111ea89828a01610f6d565b935093505060606111fd89828a01611003565b9150509295509295509295565b60006020828403121561121c57600080fd5b600061122a84828501611003565b91505092915050565b60006020828403121561124557600080fd5b600061125384828501611018565b91505092915050565b6000806040838503121561126f57600080fd5b600061127d85828601611003565b925050602061128e85828601610f2e565b9150509250929050565b6112a181611774565b82525050565b6112b081611710565b82525050565b6112bf816116fe565b82525050565b6112ce8161172e565b82525050565b60006112df826116c6565b6112e981856116dc565b93506112f98185602086016117aa565b611302816117dd565b840191505092915050565b6000611318826116d1565b61132281856116ed565b93506113328185602086016117aa565b61133b816117dd565b840191505092915050565b60006113536014836116ed565b91507f556e617574686f72697a656420726571756573740000000000000000000000006000830152602082019050919050565b60006113936026836116ed565b91507f4f776e61626c653a206e6577206f776e657220697320746865207a65726f206160008301527f64647265737300000000000000000000000000000000000000000000000000006020830152604082019050919050565b60006113f96019836116ed565b91507f72656c6179206875622061646472657373206e6f7420736574000000000000006000830152602082019050919050565b60006114396027836116ed565b91507f46756e6374696f6e2063616e206f6e6c792062652063616c6c6564206279205260008301527f656c6179487562000000000000000000000000000000000000000000000000006020830152604082019050919050565b600061149f6020836116ed565b91507f4f776e61626c653a2063616c6c6572206973206e6f7420746865206f776e65726000830152602082019050919050565b6060820160008201516114e86000850182611514565b5060208201516114fb6020850182611514565b50604082015161150e6040850182611514565b50505050565b61151d8161176a565b82525050565b61152c8161176a565b82525050565b600060208201905061154760008301846112b6565b92915050565b60006020820190506115626000830184611298565b92915050565b600060208201905061157d60008301846112c5565b92915050565b6000602082019050818103600083015261159d81846112d4565b905092915050565b600060208201905081810360008301526115bf818461130d565b905092915050565b600060208201905081810360008301526115e081611346565b9050919050565b6000602082019050818103600083015261160081611386565b9050919050565b60006020820190508181036000830152611620816113ec565b9050919050565b600060208201905081810360008301526116408161142c565b9050919050565b6000602082019050818103600083015261166081611492565b9050919050565b600060608201905061167c60008301846114d2565b92915050565b60006020820190506116976000830184611523565b92915050565b60006040820190506116b26000830185611523565b6116bf60208301846112a7565b9392505050565b600081519050919050565b600081519050919050565b600082825260208201905092915050565b600082825260208201905092915050565b60006117098261174a565b9050919050565b600061171b8261174a565b9050919050565b60008115159050919050565b6000819050919050565b6000611743826116fe565b9050919050565b600073ffffffffffffffffffffffffffffffffffffffff82169050919050565b6000819050919050565b600061177f82611786565b9050919050565b600061179182611798565b9050919050565b60006117a38261174a565b9050919050565b60005b838110156117c85780820151818401526020810190506117ad565b838111156117d7576000848401525b50505050565b6000601f19601f8301169050919050565b6117f7816116fe565b811461180257600080fd5b50565b61180e81611710565b811461181957600080fd5b50565b61182581611722565b811461183057600080fd5b50565b61183c8161172e565b811461184757600080fd5b50565b61185381611738565b811461185e57600080fd5b50565b61186a8161176a565b811461187557600080fd5b5056fea2646970667358221220de39a0ac98ba9b3dc228c8f9ffa33c1b6a156b08289fa14ff4402974bd2fc55364736f6c63430006020033",
  "source": "pragma solidity ^0.6.2;\npragma experimental ABIEncoderV2;\n\nimport \"@opengsn/gsn/contracts/BasePaymaster.sol\";\n\ncontract NaivePaymaster is BasePaymaster {\n\taddress public ourTarget;   // The target contract we are willing to pay for\n    string private paymasterVersion;\n\n    constructor(string memory _paymasterVersion) public {\n        paymasterVersion = _paymasterVersion;\n\t}\n\n\t// allow the owner to set ourTarget\n\tevent TargetSet(address target);\n\tfunction setTarget(address target) external onlyOwner {\n\t\tourTarget = target;\n\t\temit TargetSet(target);\n\t}\n\n\t// GNSTypes.RelayRequest is defined in GNSTypes.sol.\n\t// The relevant fields for us are:\n\t// target - the address of the target contract\n\t// encodedFunction - the called function's name and parameters\n\t// relayData.senderAddress - the sender's address\n\tfunction acceptRelayedCall(\n\t\tGSNTypes.RelayRequest calldata relayRequest,\n        bytes calldata signature,\n\t\tbytes calldata approvalData,\n\t\tuint256 maxPossibleGas\n\t) external view override returns (bytes memory context) {\n\t\t(approvalData, maxPossibleGas);  // avoid a warning\n\n\t\trequire(relayRequest.target == ourTarget, \"Unauthorized request\");\n\n\t\t// If we got here, we're successful. Return the time\n\t\t// to be able to match PreRelayed and PostRelayed events\n\t\treturn abi.encode(block.number);\n\t}\n\n\tevent PreRelayed(uint);\n\tevent PostRelayed(uint);\n\n\tfunction preRelayedCall(\n\t\tbytes calldata context\n\t) external relayHubOnly override returns(bytes32) {\n\t\temit PreRelayed(abi.decode(context, (uint)));\n\t\treturn bytes32(0);\n\t}\n\n\tfunction postRelayedCall(\n\t\tbytes calldata context,\n\t\tbool success,\n\t\tbytes32 preRetVal,\n\t\tuint256 gasUse,\n\t\tGSNTypes.GasData calldata gasData\n\t) external relayHubOnly override {\n\t\t(success, preRetVal, gasUse, gasData);\n\t\temit PostRelayed(abi.decode(context, (uint)));\n\t}\n\n    function versionPaymaster() external view override returns (string memory) {\n        return paymasterVersion;\n    }\n}\n\n\n",
  "sourcePath": "/Users/sachintomar/github/metatx-standard/src/contracts/NaivePaymaster.sol",
  "compiler": {
    "name": "solc",
    "version": "0.6.2+commit.bacdbe57.Emscripten.clang"
  },
  "schemaVersion": "3.1.0",
  "updatedAt": "2020-06-02T19:55:00.164Z",
  "devdoc": {
    "methods": {
      "owner()": {
        "details": "Returns the address of the current owner."
      },
      "renounceOwnership()": {
        "details": "Leaves the contract without owner. It will not be possible to call `onlyOwner` functions anymore. Can only be called by the current owner.     * NOTE: Renouncing ownership will leave the contract without an owner, thereby removing any functionality that is only available to the owner."
      },
      "transferOwnership(address)": {
        "details": "Transfers ownership of the contract to a new account (`newOwner`). Can only be called by the current owner."
      }
    }
  },
  "userdoc": {
    "methods": {
      "getRelayHubDeposit()": {
        "notice": "check current deposit on relay hub."
      },
      "withdrawRelayHubDepositTo(uint256,address)": {
        "notice": "withdraw deposit from relayHub"
      }
    }
  }
}