{
  "contractName": "TestContract",
  "abi": [
    {
      "inputs": [
        {
          "internalType": "address",
          "name": "forwarder",
          "type": "address"
        }
      ],
      "name": "isTrustedForwarder",
      "outputs": [
        {
          "internalType": "bool",
          "name": "",
          "type": "bool"
        }
      ],
      "stateMutability": "view",
      "type": "function",
      "constant": true
    },
    {
      "inputs": [],
      "name": "owner",
      "outputs": [
        {
          "internalType": "address",
          "name": "",
          "type": "address"
        }
      ],
      "stateMutability": "view",
      "type": "function",
      "constant": true
    },
    {
      "inputs": [],
      "name": "quote",
      "outputs": [
        {
          "internalType": "string",
          "name": "",
          "type": "string"
        }
      ],
      "stateMutability": "view",
      "type": "function",
      "constant": true
    },
    {
      "inputs": [],
      "name": "trustedForwarder",
      "outputs": [
        {
          "internalType": "address",
          "name": "",
          "type": "address"
        }
      ],
      "stateMutability": "view",
      "type": "function",
      "constant": true
    },
    {
      "inputs": [
        {
          "internalType": "string",
          "name": "newQuote",
          "type": "string"
        }
      ],
      "name": "setQuote",
      "outputs": [],
      "stateMutability": "nonpayable",
      "type": "function"
    },
    {
      "inputs": [],
      "name": "getQuote",
      "outputs": [
        {
          "internalType": "string",
          "name": "currentQuote",
          "type": "string"
        },
        {
          "internalType": "address",
          "name": "currentOwner",
          "type": "address"
        }
      ],
      "stateMutability": "view",
      "type": "function",
      "constant": true
    },
    {
      "inputs": [],
      "name": "versionRecipient",
      "outputs": [
        {
          "internalType": "string",
          "name": "",
          "type": "string"
        }
      ],
      "stateMutability": "view",
      "type": "function",
      "constant": true
    }
  ],
  "bytecode": "0x608060405234801561001057600080fd5b5061085c806100206000396000f3fe608060405234801561001057600080fd5b506004361061007d5760003560e01c80637da0a8771161005b5780637da0a877146100ef5780638da5cb5b1461010d578063999b93af1461012b578063e3de1703146101495761007d565b8063171755b114610082578063486ff0cd146100a1578063572b6c05146100bf575b600080fd5b61008a610165565b6040516100989291906106ce565b60405180910390f35b6100a961022f565b6040516100b691906106ac565b60405180910390f35b6100d960048036036100d4919081019061055a565b61026c565b6040516100e6919061066f565b60405180910390f35b6100f76102c5565b6040516101049190610654565b60405180910390f35b6101156102ea565b6040516101229190610654565b60405180910390f35b610133610310565b604051610140919061068a565b60405180910390f35b610163600480360361015e9190810190610583565b6103ae565b005b6060600060018054600181600116156101000203166002900480601f0160208091040260200160405190810160405280929190818152602001828054600181600116156101000203166002900480156101ff5780601f106101d4576101008083540402835291602001916101ff565b820191906000526020600020905b8154815290600101906020018083116101e257829003601f168201915b50505050509150600260009054906101000a900473ffffffffffffffffffffffffffffffffffffffff1690509091565b60606040518060400160405280600181526020017f3100000000000000000000000000000000000000000000000000000000000000815250905090565b60008060009054906101000a900473ffffffffffffffffffffffffffffffffffffffff1673ffffffffffffffffffffffffffffffffffffffff168273ffffffffffffffffffffffffffffffffffffffff16149050919050565b6000809054906101000a900473ffffffffffffffffffffffffffffffffffffffff1681565b600260009054906101000a900473ffffffffffffffffffffffffffffffffffffffff1681565b60018054600181600116156101000203166002900480601f0160208091040260200160405190810160405280929190818152602001828054600181600116156101000203166002900480156103a65780601f1061037b576101008083540402835291602001916103a6565b820191906000526020600020905b81548152906001019060200180831161038957829003601f168201915b505050505081565b80600190805190602001906103c492919061044c565b506103cd610410565b600260006101000a81548173ffffffffffffffffffffffffffffffffffffffff021916908373ffffffffffffffffffffffffffffffffffffffff16021790555050565b6000601860003690501015801561042c575061042b3361026c565b5b1561044057601436033560601c9050610448565b339050610449565b5b90565b828054600181600116156101000203166002900490600052602060002090601f016020900481019282601f1061048d57805160ff19168380011785556104bb565b828001600101855582156104bb579182015b828111156104ba57825182559160200191906001019061049f565b5b5090506104c891906104cc565b5090565b6104ee91905b808211156104ea5760008160009055506001016104d2565b5090565b90565b6000813590506105008161080f565b92915050565b600082601f83011261051757600080fd5b813561052a6105258261072b565b6106fe565b9150808252602083016020830185838301111561054657600080fd5b6105518382846107bc565b50505092915050565b60006020828403121561056c57600080fd5b600061057a848285016104f1565b91505092915050565b60006020828403121561059557600080fd5b600082013567ffffffffffffffff8111156105af57600080fd5b6105bb84828501610506565b91505092915050565b6105cd8161077e565b82525050565b6105dc81610790565b82525050565b60006105ed82610762565b6105f7818561076d565b93506106078185602086016107cb565b610610816107fe565b840191505092915050565b600061062682610757565b610630818561076d565b93506106408185602086016107cb565b610649816107fe565b840191505092915050565b600060208201905061066960008301846105c4565b92915050565b600060208201905061068460008301846105d3565b92915050565b600060208201905081810360008301526106a4818461061b565b905092915050565b600060208201905081810360008301526106c681846105e2565b905092915050565b600060408201905081810360008301526106e881856105e2565b90506106f760208301846105c4565b9392505050565b6000604051905081810181811067ffffffffffffffff8211171561072157600080fd5b8060405250919050565b600067ffffffffffffffff82111561074257600080fd5b601f19601f8301169050602081019050919050565b600081519050919050565b600081519050919050565b600082825260208201905092915050565b60006107898261079c565b9050919050565b60008115159050919050565b600073ffffffffffffffffffffffffffffffffffffffff82169050919050565b82818337600083830152505050565b60005b838110156107e95780820151818401526020810190506107ce565b838111156107f8576000848401525b50505050565b6000601f19601f8301169050919050565b6108188161077e565b811461082357600080fd5b5056fea264697066735822122052435ae874db7ce255968bfaf777bbd9d1a1b9c03587e3f625f15ae911b4762964736f6c63430006020033",
  "source": "pragma solidity ^0.6.2;\npragma experimental ABIEncoderV2;\n\nimport \"@opengsn/gsn/contracts/BaseRelayRecipient.sol\";\n\ncontract TestContract is BaseRelayRecipient {\n\n    string public quote;\n    address public owner;\n\n    function setQuote(string memory newQuote) public {\n        quote = newQuote;\n        owner = _msgSender();\n    }\n\n    function getQuote() view public returns(string memory currentQuote, address currentOwner) {\n        currentQuote = quote;\n        currentOwner = owner;\n    }\n\n    function versionRecipient() external view override returns (string memory) {\n        return \"1\";\n    }\n}",
  "sourcePath": "/Users/sachintomar/github/metatx-standard/src/contracts/TestContract.sol",
  "compiler": {
    "name": "solc",
    "version": "0.6.2+commit.bacdbe57.Emscripten.clang"
  },
  "schemaVersion": "3.3.3",
  "updatedAt": "2021-02-22T11:40:16.825Z",
  "networkType": "ethereum",
  "devdoc": {
    "methods": {}
  },
  "userdoc": {
    "methods": {}
  }
}