{
  "contractName": "TestContract",
  "abi": [
    {
      "anonymous": false,
      "inputs": [
        {
          "indexed": false,
          "internalType": "address",
          "name": "userAddress",
          "type": "address"
        },
        {
          "indexed": false,
          "internalType": "address payable",
          "name": "relayerAddress",
          "type": "address"
        },
        {
          "indexed": false,
          "internalType": "bytes",
          "name": "functionSignature",
          "type": "bytes"
        }
      ],
      "name": "MetaTransactionExecuted",
      "type": "event"
    },
    {
      "constant": false,
      "inputs": [
        {
          "internalType": "address",
          "name": "userAddress",
          "type": "address"
        },
        {
          "internalType": "bytes",
          "name": "functionSignature",
          "type": "bytes"
        },
        {
          "internalType": "bytes32",
          "name": "sigR",
          "type": "bytes32"
        },
        {
          "internalType": "bytes32",
          "name": "sigS",
          "type": "bytes32"
        },
        {
          "internalType": "uint8",
          "name": "sigV",
          "type": "uint8"
        }
      ],
      "name": "executeMetaTransaction",
      "outputs": [
        {
          "internalType": "bytes",
          "name": "",
          "type": "bytes"
        }
      ],
      "payable": true,
      "stateMutability": "payable",
      "type": "function"
    },
    {
      "constant": true,
      "inputs": [
        {
          "internalType": "address",
          "name": "user",
          "type": "address"
        }
      ],
      "name": "getNonce",
      "outputs": [
        {
          "internalType": "uint256",
          "name": "nonce",
          "type": "uint256"
        }
      ],
      "payable": false,
      "stateMutability": "view",
      "type": "function"
    },
    {
      "constant": true,
      "inputs": [],
      "name": "owner",
      "outputs": [
        {
          "internalType": "address",
          "name": "",
          "type": "address"
        }
      ],
      "payable": false,
      "stateMutability": "view",
      "type": "function"
    },
    {
      "constant": true,
      "inputs": [],
      "name": "quote",
      "outputs": [
        {
          "internalType": "string",
          "name": "",
          "type": "string"
        }
      ],
      "payable": false,
      "stateMutability": "view",
      "type": "function"
    },
    {
      "constant": false,
      "inputs": [
        {
          "internalType": "string",
          "name": "newQuote",
          "type": "string"
        }
      ],
      "name": "setQuote",
      "outputs": [],
      "payable": false,
      "stateMutability": "nonpayable",
      "type": "function"
    },
    {
      "constant": true,
      "inputs": [],
      "name": "getQuote",
      "outputs": [
        {
          "internalType": "string",
          "name": "currentQuote",
          "type": "string"
        },
        {
          "internalType": "address",
          "name": "currentOwner",
          "type": "address"
        }
      ],
      "payable": false,
      "stateMutability": "view",
      "type": "function"
    }
  ],
  "bytecode": "0x60806040526040518060400160405280600c81526020017f54657374436f6e747261637400000000000000000000000000000000000000008152506040518060400160405280600181526020017f310000000000000000000000000000000000000000000000000000000000000081525081816040518060800160405280604f8152602001620015d8604f91398051906020012082805190602001208280519060200120620000b3620000f060201b60201c565b30604051602001620000ca9594939291906200012b565b6040516020818303038152906040528051906020012060008190555050505050620001d0565b600046905090565b620001038162000188565b82525050565b62000114816200019c565b82525050565b6200012581620001c6565b82525050565b600060a08201905062000142600083018862000109565b62000151602083018762000109565b62000160604083018662000109565b6200016f60608301856200011a565b6200017e6080830184620000f8565b9695505050505050565b60006200019582620001a6565b9050919050565b6000819050919050565b600073ffffffffffffffffffffffffffffffffffffffff82169050919050565b6000819050919050565b6113f880620001e06000396000f3fe6080604052600436106100555760003560e01c80630c53c51c1461005a578063171755b11461008a5780632d0335ab146100b65780638da5cb5b146100f3578063999b93af1461011e578063e3de170314610149575b600080fd5b610074600480360361006f9190810190610adc565b610172565b6040516100819190611030565b60405180910390f35b34801561009657600080fd5b5061009f6103ec565b6040516100ad929190611074565b60405180910390f35b3480156100c257600080fd5b506100dd60048036036100d89190810190610ab3565b6104b6565b6040516100ea9190611124565b60405180910390f35b3480156100ff57600080fd5b506101086104ff565b6040516101159190610f4d565b60405180910390f35b34801561012a57600080fd5b50610133610525565b6040516101409190611052565b60405180910390f35b34801561015557600080fd5b50610170600480360361016b9190810190610b6b565b6105c3565b005b606061017c6108f0565b6040518060600160405280600160008a73ffffffffffffffffffffffffffffffffffffffff1673ffffffffffffffffffffffffffffffffffffffff1681526020019081526020016000205481526020018873ffffffffffffffffffffffffffffffffffffffff1681526020018781525090506101fb8782878787610625565b61023a576040517f08c379a000000000000000000000000000000000000000000000000000000000815260040161023190611104565b60405180910390fd5b61028c60018060008a73ffffffffffffffffffffffffffffffffffffffff1673ffffffffffffffffffffffffffffffffffffffff1681526020019081526020016000205461073490919063ffffffff16565b600160008973ffffffffffffffffffffffffffffffffffffffff1673ffffffffffffffffffffffffffffffffffffffff16815260200190815260200160002081905550600060603073ffffffffffffffffffffffffffffffffffffffff16888a336040516020016102ff93929190610edd565b60405160208183030381529060405260405161031b9190610ec6565b6000604051808303816000865af19150503d8060008114610358576040519150601f19603f3d011682016040523d82523d6000602084013e61035d565b606091505b5091509150816103a2576040517f08c379a0000000000000000000000000000000000000000000000000000000008152600401610399906110c4565b60405180910390fd5b7f5845892132946850460bff5a0083f71031bc5bf9aadcd40f1de79423eac9b10b89338a6040516103d593929190610f68565b60405180910390a180935050505095945050505050565b6060600060028054600181600116156101000203166002900480601f0160208091040260200160405190810160405280929190818152602001828054600181600116156101000203166002900480156104865780601f1061045b57610100808354040283529160200191610486565b820191906000526020600020905b81548152906001019060200180831161046957829003601f168201915b50505050509150600360009054906101000a900473ffffffffffffffffffffffffffffffffffffffff1690509091565b6000600160008373ffffffffffffffffffffffffffffffffffffffff1673ffffffffffffffffffffffffffffffffffffffff168152602001908152602001600020549050919050565b600360009054906101000a900473ffffffffffffffffffffffffffffffffffffffff1681565b60028054600181600116156101000203166002900480601f0160208091040260200160405190810160405280929190818152602001828054600181600116156101000203166002900480156105bb5780601f10610590576101008083540402835291602001916105bb565b820191906000526020600020905b81548152906001019060200180831161059e57829003601f168201915b505050505081565b80600290805190602001906105d9929190610927565b506105e2610789565b600360006101000a81548173ffffffffffffffffffffffffffffffffffffffff021916908373ffffffffffffffffffffffffffffffffffffffff16021790555050565b600080600161063b61063688610838565b6108ae565b8487876040516000815260200160405260405161065b9493929190610feb565b6020604051602081039080840390855afa15801561067d573d6000803e3d6000fd5b505050602060405103519050600073ffffffffffffffffffffffffffffffffffffffff168173ffffffffffffffffffffffffffffffffffffffff1614156106f9576040517f08c379a00000000000000000000000000000000000000000000000000000000081526004016106f0906110e4565b60405180910390fd5b8673ffffffffffffffffffffffffffffffffffffffff168173ffffffffffffffffffffffffffffffffffffffff161491505095945050505050565b60008082840190508381101561077f576040517f08c379a0000000000000000000000000000000000000000000000000000000008152600401610776906110a4565b60405180910390fd5b8091505092915050565b60003073ffffffffffffffffffffffffffffffffffffffff163373ffffffffffffffffffffffffffffffffffffffff16141561083157600060606000368080601f016020809104026020016040519081016040528093929190818152602001838380828437600081840152601f19601f8201169050808301925050505050505090506000803690509050601481036028820360003760005192508260601c9350505050610835565b3390505b90565b600060405180608001604052806043815260200161137360439139805190602001208260000151836020015184604001516040516108769190610eaf565b60405180910390206040516020016108919493929190610fa6565b604051602081830303815290604052805190602001209050919050565b60006108b86108e7565b826040516020016108ca929190610f16565b604051602081830303815290604052805190602001209050919050565b60008054905090565b604051806060016040528060008152602001600073ffffffffffffffffffffffffffffffffffffffff168152602001606081525090565b828054600181600116156101000203166002900490600052602060002090601f016020900481019282601f1061096857805160ff1916838001178555610996565b82800160010185558215610996579182015b8281111561099557825182559160200191906001019061097a565b5b5090506109a391906109a7565b5090565b6109c991905b808211156109c55760008160009055506001016109ad565b5090565b90565b6000813590506109db8161132d565b92915050565b6000813590506109f081611344565b92915050565b600082601f830112610a0757600080fd5b8135610a1a610a158261116c565b61113f565b91508082526020830160208301858383011115610a3657600080fd5b610a4183828461128d565b50505092915050565b600082601f830112610a5b57600080fd5b8135610a6e610a6982611198565b61113f565b91508082526020830160208301858383011115610a8a57600080fd5b610a9583828461128d565b50505092915050565b600081359050610aad8161135b565b92915050565b600060208284031215610ac557600080fd5b6000610ad3848285016109cc565b91505092915050565b600080600080600060a08688031215610af457600080fd5b6000610b02888289016109cc565b955050602086013567ffffffffffffffff811115610b1f57600080fd5b610b2b888289016109f6565b9450506040610b3c888289016109e1565b9350506060610b4d888289016109e1565b9250506080610b5e88828901610a9e565b9150509295509295909350565b600060208284031215610b7d57600080fd5b600082013567ffffffffffffffff811115610b9757600080fd5b610ba384828501610a4a565b91505092915050565b610bb58161123a565b82525050565b610bcc610bc78261123a565b6112e1565b82525050565b610bdb81611228565b82525050565b610bf2610bed82611228565b6112cf565b82525050565b610c018161124c565b82525050565b610c18610c138261124c565b6112f3565b82525050565b6000610c29826111cf565b610c3381856111f0565b9350610c4381856020860161129c565b610c4c8161130f565b840191505092915050565b6000610c62826111cf565b610c6c8185611201565b9350610c7c81856020860161129c565b80840191505092915050565b6000610c93826111c4565b610c9d8185611201565b9350610cad81856020860161129c565b80840191505092915050565b6000610cc4826111e5565b610cce818561120c565b9350610cde81856020860161129c565b610ce78161130f565b840191505092915050565b6000610cfd826111da565b610d07818561120c565b9350610d1781856020860161129c565b610d208161130f565b840191505092915050565b6000610d3860028361121d565b91507f19010000000000000000000000000000000000000000000000000000000000006000830152600282019050919050565b6000610d78601b8361120c565b91507f536166654d6174683a206164646974696f6e206f766572666c6f7700000000006000830152602082019050919050565b6000610db8601d8361120c565b91507f46756e6374696f6e2063616c6c206e6f74207375636365737366756c6c0000006000830152602082019050919050565b6000610df860118361120c565b91507f496e76616c6964207369676e61747572650000000000000000000000000000006000830152602082019050919050565b6000610e3860218361120c565b91507f5369676e657220616e64207369676e617475726520646f206e6f74206d61746360008301527f68000000000000000000000000000000000000000000000000000000000000006020830152604082019050919050565b610e9a81611276565b82525050565b610ea981611280565b82525050565b6000610ebb8284610c88565b915081905092915050565b6000610ed28284610c57565b915081905092915050565b6000610ee98286610c57565b9150610ef58285610be1565b601482019150610f058284610bbb565b601482019150819050949350505050565b6000610f2182610d2b565b9150610f2d8285610c07565b602082019150610f3d8284610c07565b6020820191508190509392505050565b6000602082019050610f626000830184610bd2565b92915050565b6000606082019050610f7d6000830186610bd2565b610f8a6020830185610bac565b8181036040830152610f9c8184610c1e565b9050949350505050565b6000608082019050610fbb6000830187610bf8565b610fc86020830186610e91565b610fd56040830185610bd2565b610fe26060830184610bf8565b95945050505050565b60006080820190506110006000830187610bf8565b61100d6020830186610ea0565b61101a6040830185610bf8565b6110276060830184610bf8565b95945050505050565b6000602082019050818103600083015261104a8184610c1e565b905092915050565b6000602082019050818103600083015261106c8184610cf2565b905092915050565b6000604082019050818103600083015261108e8185610cb9565b905061109d6020830184610bd2565b9392505050565b600060208201905081810360008301526110bd81610d6b565b9050919050565b600060208201905081810360008301526110dd81610dab565b9050919050565b600060208201905081810360008301526110fd81610deb565b9050919050565b6000602082019050818103600083015261111d81610e2b565b9050919050565b60006020820190506111396000830184610e91565b92915050565b6000604051905081810181811067ffffffffffffffff8211171561116257600080fd5b8060405250919050565b600067ffffffffffffffff82111561118357600080fd5b601f19601f8301169050602081019050919050565b600067ffffffffffffffff8211156111af57600080fd5b601f19601f8301169050602081019050919050565b600081519050919050565b600081519050919050565b600081519050919050565b600081519050919050565b600082825260208201905092915050565b600081905092915050565b600082825260208201905092915050565b600081905092915050565b600061123382611256565b9050919050565b600061124582611256565b9050919050565b6000819050919050565b600073ffffffffffffffffffffffffffffffffffffffff82169050919050565b6000819050919050565b600060ff82169050919050565b82818337600083830152505050565b60005b838110156112ba57808201518184015260208101905061129f565b838111156112c9576000848401525b50505050565b60006112da826112fd565b9050919050565b60006112ec826112fd565b9050919050565b6000819050919050565b600061130882611320565b9050919050565b6000601f19601f8301169050919050565b60008160601b9050919050565b61133681611228565b811461134157600080fd5b50565b61134d8161124c565b811461135857600080fd5b50565b61136481611280565b811461136f57600080fd5b5056fe4d6574615472616e73616374696f6e2875696e74323536206e6f6e63652c616464726573732066726f6d2c62797465732066756e6374696f6e5369676e617475726529a365627a7a7231582041336dcf7dedec9a17f2b75bdf0299631019ba42c076b0f682afb18aecb91d046c6578706572696d656e74616cf564736f6c634300050d0040454950373132446f6d61696e28737472696e67206e616d652c737472696e672076657273696f6e2c75696e743235362073616c742c6164647265737320766572696679696e67436f6e747261637429",
  "source": "pragma solidity ^0.5.13;\npragma experimental ABIEncoderV2;\n\nimport \"./EIP712MetaTransaction.sol\";\n\ncontract TestContract is EIP712MetaTransaction(\"TestContract\",\"1\") {\n\n    string public quote;\n    address public owner;\n\n    function setQuote(string memory newQuote) public {\n        quote = newQuote;\n        owner = msgSender();\n    }\n\n    function getQuote() view public returns(string memory currentQuote, address currentOwner) {\n        currentQuote = quote;\n        currentOwner = owner;\n    }\n}",
  "sourcePath": "/Users/sachintomar/github/metatx-standard/src/contracts/TestContract.sol",
  "compiler": {
    "name": "solc",
    "version": "0.5.13+commit.5b0b510c.Emscripten.clang"
  },
  "schemaVersion": "3.3.3",
  "updatedAt": "2021-02-20T09:51:59.610Z",
  "networkType": "ethereum",
  "devdoc": {
    "methods": {}
  },
  "userdoc": {
    "methods": {}
  }
}