{
  "contractName": "TestContract",
  "abi": [
    {
      "anonymous": false,
      "inputs": [
        {
          "indexed": false,
          "internalType": "address",
          "name": "userAddress",
          "type": "address"
        },
        {
          "indexed": false,
          "internalType": "address payable",
          "name": "relayerAddress",
          "type": "address"
        },
        {
          "indexed": false,
          "internalType": "bytes",
          "name": "functionSignature",
          "type": "bytes"
        }
      ],
      "name": "MetaTransactionExecuted",
      "type": "event"
    },
    {
      "inputs": [
        {
          "internalType": "address",
          "name": "userAddress",
          "type": "address"
        },
        {
          "internalType": "bytes",
          "name": "functionSignature",
          "type": "bytes"
        },
        {
          "internalType": "bytes32",
          "name": "sigR",
          "type": "bytes32"
        },
        {
          "internalType": "bytes32",
          "name": "sigS",
          "type": "bytes32"
        },
        {
          "internalType": "uint8",
          "name": "sigV",
          "type": "uint8"
        }
      ],
      "name": "executeMetaTransaction",
      "outputs": [
        {
          "internalType": "bytes",
          "name": "",
          "type": "bytes"
        }
      ],
      "stateMutability": "payable",
      "type": "function"
    },
    {
      "inputs": [
        {
          "internalType": "address",
          "name": "user",
          "type": "address"
        }
      ],
      "name": "getNonce",
      "outputs": [
        {
          "internalType": "uint256",
          "name": "nonce",
          "type": "uint256"
        }
      ],
      "stateMutability": "view",
      "type": "function"
    },
    {
      "inputs": [],
      "name": "owner",
      "outputs": [
        {
          "internalType": "address",
          "name": "",
          "type": "address"
        }
      ],
      "stateMutability": "view",
      "type": "function"
    },
    {
      "inputs": [],
      "name": "quote",
      "outputs": [
        {
          "internalType": "string",
          "name": "",
          "type": "string"
        }
      ],
      "stateMutability": "view",
      "type": "function"
    },
    {
      "inputs": [
        {
          "internalType": "string",
          "name": "newQuote",
          "type": "string"
        }
      ],
      "name": "setQuote",
      "outputs": [],
      "stateMutability": "nonpayable",
      "type": "function"
    },
    {
      "inputs": [],
      "name": "getQuote",
      "outputs": [
        {
          "internalType": "string",
          "name": "currentQuote",
          "type": "string"
        },
        {
          "internalType": "address",
          "name": "currentOwner",
          "type": "address"
        }
      ],
      "stateMutability": "view",
      "type": "function"
    }
  ],
  "bytecode": "0x600c60809081526b15195cdd10dbdb9d1c9858dd60a21b60a052600160c0908152603160f81b60e052610180604052604f6101008181528391839190610db6610120398051906020012082805190602001208280519060200120306100686100c060201b60201c565b604080516020808201979097528082019590955260608501939093526001600160a01b03909116608084015260a0808401919091528151808403909101815260c090920190528051910120600055506100c492505050565b4690565b610ce3806100d36000396000f3fe6080604052600436106100555760003560e01c80630c53c51c1461005a578063171755b1146101935780632d0335ab146102395780638da5cb5b1461027e578063999b93af146102af578063e3de1703146102c4575b600080fd5b61011e600480360360a081101561007057600080fd5b6001600160a01b03823516919081019060408101602082013564010000000081111561009b57600080fd5b8201836020820111156100ad57600080fd5b803590602001918460018302840111640100000000831117156100cf57600080fd5b91908080601f016020809104026020016040519081016040528093929190818152602001838380828437600092019190915250929550508235935050506020810135906040013560ff16610379565b6040805160208082528351818301528351919283929083019185019080838360005b83811015610158578181015183820152602001610140565b50505050905090810190601f1680156101855780820380516001836020036101000a031916815260200191505b509250505060405180910390f35b34801561019f57600080fd5b506101a8610705565b6040518080602001836001600160a01b03166001600160a01b03168152602001828103825284818151815260200191508051906020019080838360005b838110156101fd5781810151838201526020016101e5565b50505050905090810190601f16801561022a5780820380516001836020036101000a031916815260200191505b50935050505060405180910390f35b34801561024557600080fd5b5061026c6004803603602081101561025c57600080fd5b50356001600160a01b03166107ac565b60408051918252519081900360200190f35b34801561028a57600080fd5b506102936107c7565b604080516001600160a01b039092168252519081900360200190f35b3480156102bb57600080fd5b5061011e6107d6565b3480156102d057600080fd5b50610377600480360360208110156102e757600080fd5b81019060208101813564010000000081111561030257600080fd5b82018360208201111561031457600080fd5b8035906020019184600183028401116401000000008311171561033657600080fd5b91908080601f016020809104026020016040519081016040528093929190818152602001838380828437600092019190915250929550610861945050505050565b005b60606000610386866108a0565b90506000356001600160e01b031990811690821614156103d75760405162461bcd60e51b815260040180806020018281038252603d815260200180610c50603d913960400191505060405180910390fd5b6103df610b4a565b50604080516060810182526001600160a01b0389166000818152600160209081529084902054835282015290810187905261041d88828888886108c0565b6104585760405162461bcd60e51b8152600401808060200182810382526021815260200180610c8d6021913960400191505060405180910390fd5b6001600160a01b0388166000908152600160208190526040909120546104839163ffffffff6109ad16565b600160008a6001600160a01b03166001600160a01b031681526020019081526020016000208190555060006060306001600160a01b0316898b6040516020018083805190602001908083835b602083106104ee5780518252601f1990920191602091820191016104cf565b6001836020036101000a038019825116818451168082178552505050505050905001826001600160a01b03166001600160a01b031660601b8152601401925050506040516020818303038152906040526040518082805190602001908083835b6020831061056d5780518252601f19909201916020918201910161054e565b6001836020036101000a0380198251168184511680821785525050505050509050019150506000604051808303816000865af19150503d80600081146105cf576040519150601f19603f3d011682016040523d82523d6000602084013e6105d4565b606091505b50915091508161062b576040805162461bcd60e51b815260206004820152601c60248201527f46756e6374696f6e2063616c6c206e6f74207375636365737366756c00000000604482015290519081900360640190fd5b7f5845892132946850460bff5a0083f71031bc5bf9aadcd40f1de79423eac9b10b8a338b60405180846001600160a01b03166001600160a01b03168152602001836001600160a01b03166001600160a01b0316815260200180602001828103825283818151815260200191508051906020019080838360005b838110156106bc5781810151838201526020016106a4565b50505050905090810190601f1680156106e95780820380516001836020036101000a031916815260200191505b5094505050505060405180910390a19998505050505050505050565b6002805460408051602060018416156101000260001901909316849004601f8101849004840282018401909252818152606093600093919290918301828280156107905780601f1061076557610100808354040283529160200191610790565b820191906000526020600020905b81548152906001019060200180831161077357829003601f168201915b505060035493966001600160a01b039094169550929350505050565b6001600160a01b031660009081526001602052604090205490565b6003546001600160a01b031681565b6002805460408051602060018416156101000260001901909316849004601f810184900484028201840190925281815292918301828280156108595780601f1061082e57610100808354040283529160200191610859565b820191906000526020600020905b81548152906001019060200180831161083c57829003601f168201915b505050505081565b8051610874906002906020840190610b74565b5061087d610a0e565b600380546001600160a01b0319166001600160a01b039290921691909117905550565b60008151600014156108b4575060006108bb565b5060208101515b919050565b60008060016108d66108d188610a6c565b610af8565b84878760405160008152602001604052604051808581526020018460ff1660ff1681526020018381526020018281526020019450505050506020604051602081039080840390855afa158015610930573d6000803e3d6000fd5b5050604051601f1901519150506001600160a01b03811661098c576040805162461bcd60e51b8152602060048201526011602482015270496e76616c6964207369676e617475726560781b604482015290519081900360640190fd5b866001600160a01b0316816001600160a01b03161491505095945050505050565b600082820183811015610a07576040805162461bcd60e51b815260206004820152601b60248201527f536166654d6174683a206164646974696f6e206f766572666c6f770000000000604482015290519081900360640190fd5b9392505050565b600033301415610a665760606000368080601f0160208091040260200160405190810160405280939291908181526020018383808284376000920191909152505050503601516001600160a01b03169150610a699050565b50335b90565b6000604051806080016040528060438152602001610c0d60439139805190602001208260000151836020015184604001518051906020012060405160200180858152602001848152602001836001600160a01b03166001600160a01b03168152602001828152602001945050505050604051602081830303815290604052805190602001209050919050565b6000610b02610b44565b82604051602001808061190160f01b81525060020183815260200182815260200192505050604051602081830303815290604052805190602001209050919050565b60005490565b60405180606001604052806000815260200160006001600160a01b03168152602001606081525090565b828054600181600116156101000203166002900490600052602060002090601f016020900481019282601f10610bb557805160ff1916838001178555610be2565b82800160010185558215610be2579182015b82811115610be2578251825591602001919060010190610bc7565b50610bee929150610bf2565b5090565b610a6991905b80821115610bee5760008155600101610bf856fe4d6574615472616e73616374696f6e2875696e74323536206e6f6e63652c616464726573732066726f6d2c62797465732066756e6374696f6e5369676e61747572652966756e6374696f6e5369676e61747572652063616e206e6f74206265206f6620657865637574654d6574615472616e73616374696f6e206d6574686f645369676e657220616e64207369676e617475726520646f206e6f74206d61746368a26469706673582212202c86e7414d185ee7fb11f3be640778821b673876cf38af7b9d21431920ddbfd264736f6c63430006060033454950373132446f6d61696e28737472696e67206e616d652c737472696e672076657273696f6e2c6164647265737320766572696679696e67436f6e74726163742c627974657333322073616c7429",
  "immutableReferences": {},
  "source": "//SPDX-License-Identifier: MIT\npragma solidity 0.6.6;\n\nimport \"./EIP712MetaTransaction.sol\";\n\ncontract TestContract is EIP712MetaTransaction(\"TestContract\",\"1\") {\n\n    string public quote;\n    address public owner;\n\n    function setQuote(string memory newQuote) public {\n        quote = newQuote;\n        owner = msgSender();\n    }\n\n    function getQuote() view public returns(string memory currentQuote, address currentOwner) {\n        currentQuote = quote;\n        currentOwner = owner;\n    }\n}",
  "sourcePath": "/home/chirag/work/biconomy/metatx-standard/src/contracts/TestContract.sol",
  "compiler": {
    "name": "solc",
    "version": "0.6.6+commit.6c089d02.Emscripten.clang"
  },
  "schemaVersion": "3.2.5",
  "updatedAt": "2021-05-06T17:15:55.471Z",
  "devdoc": {
    "methods": {}
  },
  "userdoc": {
    "methods": {}
  }
}