{
  "contractName": "TestContract",
  "abi": [
    {
      "inputs": [
        {
          "internalType": "address",
          "name": "_trustedForwarder",
          "type": "address"
        }
      ],
      "stateMutability": "nonpayable",
      "type": "constructor"
    },
    {
      "inputs": [
        {
          "internalType": "address",
          "name": "forwarder",
          "type": "address"
        }
      ],
      "name": "isTrustedForwarder",
      "outputs": [
        {
          "internalType": "bool",
          "name": "",
          "type": "bool"
        }
      ],
      "stateMutability": "view",
      "type": "function",
      "constant": true
    },
    {
      "inputs": [],
      "name": "owner",
      "outputs": [
        {
          "internalType": "address",
          "name": "",
          "type": "address"
        }
      ],
      "stateMutability": "view",
      "type": "function",
      "constant": true
    },
    {
      "inputs": [],
      "name": "quote",
      "outputs": [
        {
          "internalType": "string",
          "name": "",
          "type": "string"
        }
      ],
      "stateMutability": "view",
      "type": "function",
      "constant": true
    },
    {
      "inputs": [],
      "name": "trustedForwarder",
      "outputs": [
        {
          "internalType": "address",
          "name": "",
          "type": "address"
        }
      ],
      "stateMutability": "view",
      "type": "function",
      "constant": true
    },
    {
      "inputs": [
        {
          "internalType": "address",
          "name": "_trustedForwarder",
          "type": "address"
        }
      ],
      "name": "setTrustedForwarder",
      "outputs": [],
      "stateMutability": "nonpayable",
      "type": "function"
    },
    {
      "inputs": [
        {
          "internalType": "string",
          "name": "newQuote",
          "type": "string"
        }
      ],
      "name": "setQuote",
      "outputs": [],
      "stateMutability": "nonpayable",
      "type": "function"
    },
    {
      "inputs": [],
      "name": "getQuote",
      "outputs": [
        {
          "internalType": "string",
          "name": "currentQuote",
          "type": "string"
        },
        {
          "internalType": "address",
          "name": "currentOwner",
          "type": "address"
        }
      ],
      "stateMutability": "view",
      "type": "function",
      "constant": true
    },
    {
      "inputs": [],
      "name": "versionRecipient",
      "outputs": [
        {
          "internalType": "string",
          "name": "",
          "type": "string"
        }
      ],
      "stateMutability": "view",
      "type": "function",
      "constant": true
    }
  ],
  "bytecode": "0x608060405234801561001057600080fd5b506040516109d43803806109d48339818101604052610032919081019061008d565b806000806101000a81548173ffffffffffffffffffffffffffffffffffffffff021916908373ffffffffffffffffffffffffffffffffffffffff160217905550506100ff565b600081519050610087816100e8565b92915050565b60006020828403121561009f57600080fd5b60006100ad84828501610078565b91505092915050565b60006100c1826100c8565b9050919050565b600073ffffffffffffffffffffffffffffffffffffffff82169050919050565b6100f1816100b6565b81146100fc57600080fd5b50565b6108c68061010e6000396000f3fe608060405234801561001057600080fd5b50600436106100885760003560e01c80638da5cb5b1161005b5780638da5cb5b14610118578063999b93af14610136578063da74222814610154578063e3de17031461017057610088565b8063171755b11461008d578063486ff0cd146100ac578063572b6c05146100ca5780637da0a877146100fa575b600080fd5b61009561018c565b6040516100a3929190610738565b60405180910390f35b6100b4610256565b6040516100c19190610716565b60405180910390f35b6100e460048036036100df91908101906105c4565b610293565b6040516100f191906106d9565b60405180910390f35b6101026102ec565b60405161010f91906106be565b60405180910390f35b610120610311565b60405161012d91906106be565b60405180910390f35b61013e610337565b60405161014b91906106f4565b60405180910390f35b61016e600480360361016991908101906105c4565b6103d5565b005b61018a600480360361018591908101906105ed565b610418565b005b6060600060018054600181600116156101000203166002900480601f0160208091040260200160405190810160405280929190818152602001828054600181600116156101000203166002900480156102265780601f106101fb57610100808354040283529160200191610226565b820191906000526020600020905b81548152906001019060200180831161020957829003601f168201915b50505050509150600260009054906101000a900473ffffffffffffffffffffffffffffffffffffffff1690509091565b60606040518060400160405280600181526020017f3100000000000000000000000000000000000000000000000000000000000000815250905090565b60008060009054906101000a900473ffffffffffffffffffffffffffffffffffffffff1673ffffffffffffffffffffffffffffffffffffffff168273ffffffffffffffffffffffffffffffffffffffff16149050919050565b6000809054906101000a900473ffffffffffffffffffffffffffffffffffffffff1681565b600260009054906101000a900473ffffffffffffffffffffffffffffffffffffffff1681565b60018054600181600116156101000203166002900480601f0160208091040260200160405190810160405280929190818152602001828054600181600116156101000203166002900480156103cd5780601f106103a2576101008083540402835291602001916103cd565b820191906000526020600020905b8154815290600101906020018083116103b057829003601f168201915b505050505081565b806000806101000a81548173ffffffffffffffffffffffffffffffffffffffff021916908373ffffffffffffffffffffffffffffffffffffffff16021790555050565b806001908051906020019061042e9291906104b6565b5061043761047a565b600260006101000a81548173ffffffffffffffffffffffffffffffffffffffff021916908373ffffffffffffffffffffffffffffffffffffffff16021790555050565b60006018600036905010158015610496575061049533610293565b5b156104aa57601436033560601c90506104b2565b3390506104b3565b5b90565b828054600181600116156101000203166002900490600052602060002090601f016020900481019282601f106104f757805160ff1916838001178555610525565b82800160010185558215610525579182015b82811115610524578251825591602001919060010190610509565b5b5090506105329190610536565b5090565b61055891905b8082111561055457600081600090555060010161053c565b5090565b90565b60008135905061056a81610879565b92915050565b600082601f83011261058157600080fd5b813561059461058f82610795565b610768565b915080825260208301602083018583830111156105b057600080fd5b6105bb838284610826565b50505092915050565b6000602082840312156105d657600080fd5b60006105e48482850161055b565b91505092915050565b6000602082840312156105ff57600080fd5b600082013567ffffffffffffffff81111561061957600080fd5b61062584828501610570565b91505092915050565b610637816107e8565b82525050565b610646816107fa565b82525050565b6000610657826107cc565b61066181856107d7565b9350610671818560208601610835565b61067a81610868565b840191505092915050565b6000610690826107c1565b61069a81856107d7565b93506106aa818560208601610835565b6106b381610868565b840191505092915050565b60006020820190506106d3600083018461062e565b92915050565b60006020820190506106ee600083018461063d565b92915050565b6000602082019050818103600083015261070e8184610685565b905092915050565b60006020820190508181036000830152610730818461064c565b905092915050565b60006040820190508181036000830152610752818561064c565b9050610761602083018461062e565b9392505050565b6000604051905081810181811067ffffffffffffffff8211171561078b57600080fd5b8060405250919050565b600067ffffffffffffffff8211156107ac57600080fd5b601f19601f8301169050602081019050919050565b600081519050919050565b600081519050919050565b600082825260208201905092915050565b60006107f382610806565b9050919050565b60008115159050919050565b600073ffffffffffffffffffffffffffffffffffffffff82169050919050565b82818337600083830152505050565b60005b83811015610853578082015181840152602081019050610838565b83811115610862576000848401525b50505050565b6000601f19601f8301169050919050565b610882816107e8565b811461088d57600080fd5b5056fea26469706673582212207309b1c3a8cf3bc341904cbe965ed8c37baf2514ce3b208158741cc5ccea9f4e64736f6c63430006020033",
  "source": "pragma solidity ^0.6.2;\npragma experimental ABIEncoderV2;\n\nimport \"@opengsn/gsn/contracts/BaseRelayRecipient.sol\";\n\ncontract TestContract is BaseRelayRecipient {\n\n    string public quote;\n    address public owner;\n\n    constructor(address _trustedForwarder) public {\n        trustedForwarder = _trustedForwarder;\n    }\n\n    function setTrustedForwarder(address _trustedForwarder) public {\n        trustedForwarder = _trustedForwarder;\n    }\n    \n    /**\n     * \n     */\n    function setQuote(string memory newQuote) public {\n        quote = newQuote;\n        owner = _msgSender();\n    }\n\n    function getQuote() view public returns(string memory currentQuote, address currentOwner) {\n        currentQuote = quote;\n        currentOwner = owner;\n    }\n\n    function versionRecipient() external view override returns (string memory) {\n        return \"1\";\n    }\n}",
  "sourcePath": "/Users/sachintomar/github/metatx-standard/src/contracts/TestContract.sol",
  "compiler": {
    "name": "solc",
    "version": "0.6.2+commit.bacdbe57.Emscripten.clang"
  },
  "schemaVersion": "3.3.3",
  "updatedAt": "2021-02-23T12:10:01.790Z",
  "networkType": "ethereum",
  "devdoc": {
    "methods": {}
  },
  "userdoc": {
    "methods": {
      "setQuote(string)": {
        "notice": "     "
      }
    }
  }
}